{
  "_format": "hh-sol-artifact-1",
  "contractName": "StakingRewards",
  "sourceName": "contracts/StakingRewards.sol",
  "abi": [
    {
      "inputs": [],
      "stateMutability": "nonpayable",
      "type": "constructor"
    },
    {
      "anonymous": false,
      "inputs": [
        {
          "indexed": false,
          "internalType": "address",
          "name": "previousAdmin",
          "type": "address"
        },
        {
          "indexed": false,
          "internalType": "address",
          "name": "newAdmin",
          "type": "address"
        }
      ],
      "name": "AdminChanged",
      "type": "event"
    },
    {
      "anonymous": false,
      "inputs": [
        {
          "indexed": true,
          "internalType": "address",
          "name": "beacon",
          "type": "address"
        }
      ],
      "name": "BeaconUpgraded",
      "type": "event"
    },
    {
      "anonymous": false,
      "inputs": [
        {
          "indexed": false,
          "internalType": "address",
          "name": "_from",
          "type": "address"
        },
        {
          "indexed": false,
          "internalType": "string",
          "name": "_name",
          "type": "string"
        },
        {
          "indexed": false,
          "internalType": "uint256",
          "name": "_value",
          "type": "uint256"
        }
      ],
      "name": "Event",
      "type": "event"
    },
    {
      "anonymous": false,
      "inputs": [
        {
          "indexed": false,
          "internalType": "uint8",
          "name": "version",
          "type": "uint8"
        }
      ],
      "name": "Initialized",
      "type": "event"
    },
    {
      "anonymous": false,
      "inputs": [
        {
          "indexed": false,
          "internalType": "address",
          "name": "account",
          "type": "address"
        }
      ],
      "name": "Paused",
      "type": "event"
    },
    {
      "anonymous": false,
      "inputs": [
        {
          "indexed": true,
          "internalType": "bytes32",
          "name": "role",
          "type": "bytes32"
        },
        {
          "indexed": true,
          "internalType": "bytes32",
          "name": "previousAdminRole",
          "type": "bytes32"
        },
        {
          "indexed": true,
          "internalType": "bytes32",
          "name": "newAdminRole",
          "type": "bytes32"
        }
      ],
      "name": "RoleAdminChanged",
      "type": "event"
    },
    {
      "anonymous": false,
      "inputs": [
        {
          "indexed": true,
          "internalType": "bytes32",
          "name": "role",
          "type": "bytes32"
        },
        {
          "indexed": true,
          "internalType": "address",
          "name": "account",
          "type": "address"
        },
        {
          "indexed": true,
          "internalType": "address",
          "name": "sender",
          "type": "address"
        }
      ],
      "name": "RoleGranted",
      "type": "event"
    },
    {
      "anonymous": false,
      "inputs": [
        {
          "indexed": true,
          "internalType": "bytes32",
          "name": "role",
          "type": "bytes32"
        },
        {
          "indexed": true,
          "internalType": "address",
          "name": "account",
          "type": "address"
        },
        {
          "indexed": true,
          "internalType": "address",
          "name": "sender",
          "type": "address"
        }
      ],
      "name": "RoleRevoked",
      "type": "event"
    },
    {
      "anonymous": false,
      "inputs": [
        {
          "indexed": false,
          "internalType": "address",
          "name": "account",
          "type": "address"
        }
      ],
      "name": "Unpaused",
      "type": "event"
    },
    {
      "anonymous": false,
      "inputs": [
        {
          "indexed": true,
          "internalType": "address",
          "name": "implementation",
          "type": "address"
        }
      ],
      "name": "Upgraded",
      "type": "event"
    },
    {
      "inputs": [],
      "name": "DEFAULT_ADMIN_ROLE",
      "outputs": [
        {
          "internalType": "bytes32",
          "name": "",
          "type": "bytes32"
        }
      ],
      "stateMutability": "view",
      "type": "function"
    },
    {
      "inputs": [],
      "name": "MINTER_ROLE",
      "outputs": [
        {
          "internalType": "bytes32",
          "name": "",
          "type": "bytes32"
        }
      ],
      "stateMutability": "view",
      "type": "function"
    },
    {
      "inputs": [],
      "name": "PAUSER_ROLE",
      "outputs": [
        {
          "internalType": "bytes32",
          "name": "",
          "type": "bytes32"
        }
      ],
      "stateMutability": "view",
      "type": "function"
    },
    {
      "inputs": [],
      "name": "SNAPSHOT_ROLE",
      "outputs": [
        {
          "internalType": "bytes32",
          "name": "",
          "type": "bytes32"
        }
      ],
      "stateMutability": "view",
      "type": "function"
    },
    {
      "inputs": [],
      "name": "UPGRADER_ROLE",
      "outputs": [
        {
          "internalType": "bytes32",
          "name": "",
          "type": "bytes32"
        }
      ],
      "stateMutability": "view",
      "type": "function"
    },
    {
      "inputs": [],
      "name": "balanceRewards",
      "outputs": [
        {
          "internalType": "uint256",
          "name": "",
          "type": "uint256"
        }
      ],
      "stateMutability": "view",
      "type": "function"
    },
    {
      "inputs": [],
      "name": "balanceStaking",
      "outputs": [
        {
          "internalType": "uint256",
          "name": "",
          "type": "uint256"
        }
      ],
      "stateMutability": "view",
      "type": "function"
    },
    {
      "inputs": [
        {
          "internalType": "address",
          "name": "account",
          "type": "address"
        }
      ],
      "name": "earned",
      "outputs": [
        {
          "internalType": "uint256",
          "name": "",
          "type": "uint256"
        }
      ],
      "stateMutability": "view",
      "type": "function"
    },
    {
      "inputs": [],
      "name": "getRewards",
      "outputs": [],
      "stateMutability": "nonpayable",
      "type": "function"
    },
    {
      "inputs": [
        {
          "internalType": "bytes32",
          "name": "role",
          "type": "bytes32"
        }
      ],
      "name": "getRoleAdmin",
      "outputs": [
        {
          "internalType": "bytes32",
          "name": "",
          "type": "bytes32"
        }
      ],
      "stateMutability": "view",
      "type": "function"
    },
    {
      "inputs": [
        {
          "internalType": "bytes32",
          "name": "role",
          "type": "bytes32"
        },
        {
          "internalType": "address",
          "name": "account",
          "type": "address"
        }
      ],
      "name": "grantRole",
      "outputs": [],
      "stateMutability": "nonpayable",
      "type": "function"
    },
    {
      "inputs": [
        {
          "internalType": "bytes32",
          "name": "role",
          "type": "bytes32"
        },
        {
          "internalType": "address",
          "name": "account",
          "type": "address"
        }
      ],
      "name": "hasRole",
      "outputs": [
        {
          "internalType": "bool",
          "name": "",
          "type": "bool"
        }
      ],
      "stateMutability": "view",
      "type": "function"
    },
    {
      "inputs": [
        {
          "internalType": "address",
          "name": "_stakingToken",
          "type": "address"
        },
        {
          "internalType": "address",
          "name": "_rewardsToken",
          "type": "address"
        }
      ],
      "name": "initialize",
      "outputs": [],
      "stateMutability": "nonpayable",
      "type": "function"
    },
    {
      "inputs": [],
      "name": "lastUpdateTime",
      "outputs": [
        {
          "internalType": "uint256",
          "name": "",
          "type": "uint256"
        }
      ],
      "stateMutability": "view",
      "type": "function"
    },
    {
      "inputs": [],
      "name": "pause",
      "outputs": [],
      "stateMutability": "nonpayable",
      "type": "function"
    },
    {
      "inputs": [],
      "name": "paused",
      "outputs": [
        {
          "internalType": "bool",
          "name": "",
          "type": "bool"
        }
      ],
      "stateMutability": "view",
      "type": "function"
    },
    {
      "inputs": [],
      "name": "proxiableUUID",
      "outputs": [
        {
          "internalType": "bytes32",
          "name": "",
          "type": "bytes32"
        }
      ],
      "stateMutability": "view",
      "type": "function"
    },
    {
      "inputs": [
        {
          "internalType": "bytes32",
          "name": "role",
          "type": "bytes32"
        },
        {
          "internalType": "address",
          "name": "account",
          "type": "address"
        }
      ],
      "name": "renounceRole",
      "outputs": [],
      "stateMutability": "nonpayable",
      "type": "function"
    },
    {
      "inputs": [
        {
          "internalType": "bytes32",
          "name": "role",
          "type": "bytes32"
        },
        {
          "internalType": "address",
          "name": "account",
          "type": "address"
        }
      ],
      "name": "revokeRole",
      "outputs": [],
      "stateMutability": "nonpayable",
      "type": "function"
    },
    {
      "inputs": [],
      "name": "rewardPerTokenStored",
      "outputs": [
        {
          "internalType": "uint256",
          "name": "",
          "type": "uint256"
        }
      ],
      "stateMutability": "view",
      "type": "function"
    },
    {
      "inputs": [],
      "name": "rewardRate",
      "outputs": [
        {
          "internalType": "uint256",
          "name": "",
          "type": "uint256"
        }
      ],
      "stateMutability": "view",
      "type": "function"
    },
    {
      "inputs": [],
      "name": "rewardsToken",
      "outputs": [
        {
          "internalType": "contract IERC20Upgradeable",
          "name": "",
          "type": "address"
        }
      ],
      "stateMutability": "view",
      "type": "function"
    },
    {
      "inputs": [
        {
          "internalType": "uint256",
          "name": "_amount",
          "type": "uint256"
        }
      ],
      "name": "stake",
      "outputs": [],
      "stateMutability": "nonpayable",
      "type": "function"
    },
    {
      "inputs": [],
      "name": "stakeBalance",
      "outputs": [
        {
          "internalType": "uint256",
          "name": "",
          "type": "uint256"
        }
      ],
      "stateMutability": "view",
      "type": "function"
    },
    {
      "inputs": [],
      "name": "stakingToken",
      "outputs": [
        {
          "internalType": "contract IERC20Upgradeable",
          "name": "",
          "type": "address"
        }
      ],
      "stateMutability": "view",
      "type": "function"
    },
    {
      "inputs": [
        {
          "internalType": "bytes4",
          "name": "interfaceId",
          "type": "bytes4"
        }
      ],
      "name": "supportsInterface",
      "outputs": [
        {
          "internalType": "bool",
          "name": "",
          "type": "bool"
        }
      ],
      "stateMutability": "view",
      "type": "function"
    },
    {
      "inputs": [],
      "name": "totalSupply",
      "outputs": [
        {
          "internalType": "uint256",
          "name": "",
          "type": "uint256"
        }
      ],
      "stateMutability": "view",
      "type": "function"
    },
    {
      "inputs": [],
      "name": "unpause",
      "outputs": [],
      "stateMutability": "nonpayable",
      "type": "function"
    },
    {
      "inputs": [
        {
          "internalType": "address",
          "name": "newImplementation",
          "type": "address"
        }
      ],
      "name": "upgradeTo",
      "outputs": [],
      "stateMutability": "nonpayable",
      "type": "function"
    },
    {
      "inputs": [
        {
          "internalType": "address",
          "name": "newImplementation",
          "type": "address"
        },
        {
          "internalType": "bytes",
          "name": "data",
          "type": "bytes"
        }
      ],
      "name": "upgradeToAndCall",
      "outputs": [],
      "stateMutability": "payable",
      "type": "function"
    },
    {
      "inputs": [
        {
          "internalType": "uint256",
          "name": "_amount",
          "type": "uint256"
        }
      ],
      "name": "withdraw",
      "outputs": [],
      "stateMutability": "nonpayable",
      "type": "function"
    }
  ],
  "bytecode": "0x60a06040523073ffffffffffffffffffffffffffffffffffffffff1660809073ffffffffffffffffffffffffffffffffffffffff1660601b8152503480156200004757600080fd5b50620000586200005e60201b60201c565b62000245565b6200007060ff6200007360201b60201c565b50565b60008060019054906101000a900460ff1615620000fd5760018260ff16148015620000b15750620000af306200017960201b620019681760201c565b155b620000f3576040517f08c379a0000000000000000000000000000000000000000000000000000000008152600401620000ea90620001c3565b60405180910390fd5b6000905062000174565b8160ff1660008054906101000a900460ff1660ff161062000155576040517f08c379a00000000000000000000000000000000000000000000000000000000081526004016200014c90620001c3565b60405180910390fd5b816000806101000a81548160ff021916908360ff160217905550600190505b919050565b6000808273ffffffffffffffffffffffffffffffffffffffff163b119050919050565b6000620001ab602e83620001e5565b9150620001b882620001f6565b604082019050919050565b60006020820190508181036000830152620001de816200019c565b9050919050565b600082825260208201905092915050565b7f496e697469616c697a61626c653a20636f6e747261637420697320616c72656160008201527f647920696e697469616c697a6564000000000000000000000000000000000000602082015250565b60805160601c6139b36200028060003960008181610dde01528181610e6d015281816111b10152818161124001526112f001526139b36000f3fe6080604052600436106101d75760003560e01c80637028e2cd11610102578063c8f33c9111610095578063df136d6511610064578063df136d6514610654578063e63ab1e91461067f578063e69c3178146106aa578063f72c0d8b146106d5576101d7565b8063c8f33c91146105aa578063d1af0c7d146105d5578063d539139314610600578063d547741f1461062b576101d7565b806391d14854116100d157806391d14854146104ee57806393bc9dfe1461052b578063a217fddf14610556578063a694fc3a14610581576101d7565b80637028e2cd1461045657806372f702f3146104815780637b0a47ee146104ac5780638456cb59146104d7576101d7565b806336568abe1161017a5780634f1ef286116101495780634f1ef286146103b957806352d1902d146103d55780635c975abb14610400578063623045a51461042b576101d7565b806336568abe146103275780633659cfe6146103505780633f4ba83a14610379578063485cc95514610390576101d7565b806318160ddd116101b657806318160ddd1461026d578063248a9ca3146102985780632e1a7d4d146102d55780632f2ff15d146102fe576101d7565b80628cc262146101dc57806301ffc9a7146102195780630572b0cc14610256575b600080fd5b3480156101e857600080fd5b5061020360048036038101906101fe91906128ee565b610700565b6040516102109190613118565b60405180910390f35b34801561022557600080fd5b50610240600480360381019061023b9190612a5e565b6107f7565b60405161024d9190612eca565b60405180910390f35b34801561026257600080fd5b5061026b610871565b005b34801561027957600080fd5b50610282610acc565b60405161028f9190613118565b60405180910390f35b3480156102a457600080fd5b506102bf60048036038101906102ba91906129d0565b610ad7565b6040516102cc9190612ee5565b60405180910390f35b3480156102e157600080fd5b506102fc60048036038101906102f79190612a87565b610af7565b005b34801561030a57600080fd5b5061032560048036038101906103209190612a22565b610d38565b005b34801561033357600080fd5b5061034e60048036038101906103499190612a22565b610d59565b005b34801561035c57600080fd5b50610377600480360381019061037291906128ee565b610ddc565b005b34801561038557600080fd5b5061038e610f8b565b005b34801561039c57600080fd5b506103b760048036038101906103b29190612917565b610fc0565b005b6103d360048036038101906103ce9190612953565b6111af565b005b3480156103e157600080fd5b506103ea6112ec565b6040516103f79190612ee5565b60405180910390f35b34801561040c57600080fd5b506104156113a5565b6040516104229190612eca565b60405180910390f35b34801561043757600080fd5b506104406113bc565b60405161044d9190613118565b60405180910390f35b34801561046257600080fd5b5061046b61146f565b6040516104789190612ee5565b60405180910390f35b34801561048d57600080fd5b50610496611493565b6040516104a39190612f00565b60405180910390f35b3480156104b857600080fd5b506104c16114ba565b6040516104ce9190613118565b60405180910390f35b3480156104e357600080fd5b506104ec6114c1565b005b3480156104fa57600080fd5b5061051560048036038101906105109190612a22565b6114f6565b6040516105229190612eca565b60405180910390f35b34801561053757600080fd5b50610540611561565b60405161054d9190613118565b60405180910390f35b34801561056257600080fd5b5061056b6115a9565b6040516105789190612ee5565b60405180910390f35b34801561058d57600080fd5b506105a860048036038101906105a39190612a87565b6115b0565b005b3480156105b657600080fd5b506105bf6117f3565b6040516105cc9190613118565b60405180910390f35b3480156105e157600080fd5b506105ea6117fa565b6040516105f79190612f00565b60405180910390f35b34801561060c57600080fd5b50610615611821565b6040516106229190612ee5565b60405180910390f35b34801561063757600080fd5b50610652600480360381019061064d9190612a22565b611845565b005b34801561066057600080fd5b50610669611866565b6040516106769190613118565b60405180910390f35b34801561068b57600080fd5b5061069461186d565b6040516106a19190612ee5565b60405180910390f35b3480156106b657600080fd5b506106bf611891565b6040516106cc9190613118565b60405180910390f35b3480156106e157600080fd5b506106ea611944565b6040516106f79190612ee5565b60405180910390f35b60008061013360008473ffffffffffffffffffffffffffffffffffffffff1673ffffffffffffffffffffffffffffffffffffffff1681526020019081526020016000205461013260008573ffffffffffffffffffffffffffffffffffffffff1673ffffffffffffffffffffffffffffffffffffffff1681526020019081526020016000205461078d61198b565b61079791906132a7565b61013560008673ffffffffffffffffffffffffffffffffffffffff1673ffffffffffffffffffffffffffffffffffffffff168152602001908152602001600020546107e2919061324d565b6107ec91906131c6565b905080915050919050565b60007f7965db0b000000000000000000000000000000000000000000000000000000007bffffffffffffffffffffffffffffffffffffffffffffffffffffffff1916827bffffffffffffffffffffffffffffffffffffffffffffffffffffffff1916148061086a5750610869826119e2565b5b9050919050565b3361087a61198b565b61013181905550426101308190555061089281610700565b61013360008373ffffffffffffffffffffffffffffffffffffffff1673ffffffffffffffffffffffffffffffffffffffff168152602001908152602001600020819055506101315461013260008373ffffffffffffffffffffffffffffffffffffffff1673ffffffffffffffffffffffffffffffffffffffff168152602001908152602001600020819055503373ffffffffffffffffffffffffffffffffffffffff163273ffffffffffffffffffffffffffffffffffffffff161461098c576040517f08c379a000000000000000000000000000000000000000000000000000000000815260040161098390613018565b60405180910390fd5b600061013360003373ffffffffffffffffffffffffffffffffffffffff1673ffffffffffffffffffffffffffffffffffffffff168152602001908152602001600020549050600061013360003373ffffffffffffffffffffffffffffffffffffffff1673ffffffffffffffffffffffffffffffffffffffff1681526020019081526020016000208190555061012d60009054906101000a900473ffffffffffffffffffffffffffffffffffffffff1673ffffffffffffffffffffffffffffffffffffffff1663a9059cbb33836040518363ffffffff1660e01b8152600401610a75929190612ea1565b602060405180830381600087803b158015610a8f57600080fd5b505af1158015610aa3573d6000803e3d6000fd5b505050506040513d601f19601f82011682018060405250810190610ac791906129a7565b505050565b600061013454905090565b600060656000838152602001908152602001600020600101549050919050565b33610b0061198b565b610131819055504261013081905550610b1881610700565b61013360008373ffffffffffffffffffffffffffffffffffffffff1673ffffffffffffffffffffffffffffffffffffffff168152602001908152602001600020819055506101315461013260008373ffffffffffffffffffffffffffffffffffffffff1673ffffffffffffffffffffffffffffffffffffffff168152602001908152602001600020819055503373ffffffffffffffffffffffffffffffffffffffff163273ffffffffffffffffffffffffffffffffffffffff1614610c12576040517f08c379a0000000000000000000000000000000000000000000000000000000008152600401610c0990613018565b60405180910390fd5b816101346000828254610c2591906132a7565b925050819055508161013560003373ffffffffffffffffffffffffffffffffffffffff1673ffffffffffffffffffffffffffffffffffffffff1681526020019081526020016000206000828254610c7c91906132a7565b9250508190555061012e60009054906101000a900473ffffffffffffffffffffffffffffffffffffffff1673ffffffffffffffffffffffffffffffffffffffff1663a9059cbb33846040518363ffffffff1660e01b8152600401610ce1929190612ea1565b602060405180830381600087803b158015610cfb57600080fd5b505af1158015610d0f573d6000803e3d6000fd5b505050506040513d601f19601f82011682018060405250810190610d3391906129a7565b505050565b610d4182610ad7565b610d4a81611a4c565b610d548383611a60565b505050565b610d61611b41565b73ffffffffffffffffffffffffffffffffffffffff168173ffffffffffffffffffffffffffffffffffffffff1614610dce576040517f08c379a0000000000000000000000000000000000000000000000000000000008152600401610dc5906130f8565b60405180910390fd5b610dd88282611b49565b5050565b7f000000000000000000000000000000000000000000000000000000000000000073ffffffffffffffffffffffffffffffffffffffff163073ffffffffffffffffffffffffffffffffffffffff161415610e6b576040517f08c379a0000000000000000000000000000000000000000000000000000000008152600401610e6290612f98565b60405180910390fd5b7f000000000000000000000000000000000000000000000000000000000000000073ffffffffffffffffffffffffffffffffffffffff16610eaa611c2b565b73ffffffffffffffffffffffffffffffffffffffff1614610f00576040517f08c379a0000000000000000000000000000000000000000000000000000000008152600401610ef790612fb8565b60405180910390fd5b610f0981611c82565b610f8881600067ffffffffffffffff811115610f4e577f4e487b7100000000000000000000000000000000000000000000000000000000600052604160045260246000fd5b6040519080825280601f01601f191660200182016040528015610f805781602001600182028036833780820191505090505b506000611cb0565b50565b7f65d7a28e3265b37a6474929f336521b332c1681b933f6cb9f3376673440d862a610fb581611a4c565b610fbd611e2d565b50565b6000610fcc6001611ecf565b90508015610ff0576001600060016101000a81548160ff0219169083151502179055505b610ff8611fbf565b611000612010565b611008612069565b6110156000801b33611a60565b61103f7f5fdbd35e8da83ee755d5e62a539e5ed7f47126abede0b8b10f9ea43dc6eed07f33611a60565b6110697f65d7a28e3265b37a6474929f336521b332c1681b933f6cb9f3376673440d862a33611a60565b6110937f9f2df0fed2c77648de5860a4cc508cd0818c85b8b8a1ab4ceeef8d981c8956a633611a60565b6110bd7f189ab7a9244df0848122154315af71fe140f3db0fe014031783b0946b8c9d2e333611a60565b8261012e60006101000a81548173ffffffffffffffffffffffffffffffffffffffff021916908373ffffffffffffffffffffffffffffffffffffffff1602179055508161012d60006101000a81548173ffffffffffffffffffffffffffffffffffffffff021916908373ffffffffffffffffffffffffffffffffffffffff16021790555067016345785d8a000061012f8190555080156111aa5760008060016101000a81548160ff0219169083151502179055507f7f26b83ff96e1f2b6a682f133852f6798a09c465da95921460cefb384740249860016040516111a19190612f1b565b60405180910390a15b505050565b7f000000000000000000000000000000000000000000000000000000000000000073ffffffffffffffffffffffffffffffffffffffff163073ffffffffffffffffffffffffffffffffffffffff16141561123e576040517f08c379a000000000000000000000000000000000000000000000000000000000815260040161123590612f98565b60405180910390fd5b7f000000000000000000000000000000000000000000000000000000000000000073ffffffffffffffffffffffffffffffffffffffff1661127d611c2b565b73ffffffffffffffffffffffffffffffffffffffff16146112d3576040517f08c379a00000000000000000000000000000000000000000000000000000000081526004016112ca90612fb8565b60405180910390fd5b6112dc82611c82565b6112e882826001611cb0565b5050565b60007f000000000000000000000000000000000000000000000000000000000000000073ffffffffffffffffffffffffffffffffffffffff163073ffffffffffffffffffffffffffffffffffffffff161461137c576040517f08c379a000000000000000000000000000000000000000000000000000000000815260040161137390612fd8565b60405180910390fd5b7f360894a13ba1a3210667c828492db98dca3e2076cc3735a920a3ca505d382bbc60001b905090565b6000609760009054906101000a900460ff16905090565b600061012d60009054906101000a900473ffffffffffffffffffffffffffffffffffffffff1673ffffffffffffffffffffffffffffffffffffffff166370a08231336040518263ffffffff1660e01b815260040161141a9190612e4f565b60206040518083038186803b15801561143257600080fd5b505afa158015611446573d6000803e3d6000fd5b505050506040513d601f19601f8201168201806040525081019061146a9190612ab0565b905090565b7f5fdbd35e8da83ee755d5e62a539e5ed7f47126abede0b8b10f9ea43dc6eed07f81565b61012e60009054906101000a900473ffffffffffffffffffffffffffffffffffffffff1681565b61012f5481565b7f65d7a28e3265b37a6474929f336521b332c1681b933f6cb9f3376673440d862a6114eb81611a4c565b6114f36120ba565b50565b60006065600084815260200190815260200160002060000160008373ffffffffffffffffffffffffffffffffffffffff1673ffffffffffffffffffffffffffffffffffffffff16815260200190815260200160002060009054906101000a900460ff16905092915050565b600061013560003373ffffffffffffffffffffffffffffffffffffffff1673ffffffffffffffffffffffffffffffffffffffff16815260200190815260200160002054905090565b6000801b81565b336115b961198b565b6101318190555042610130819055506115d181610700565b61013360008373ffffffffffffffffffffffffffffffffffffffff1673ffffffffffffffffffffffffffffffffffffffff168152602001908152602001600020819055506101315461013260008373ffffffffffffffffffffffffffffffffffffffff1673ffffffffffffffffffffffffffffffffffffffff168152602001908152602001600020819055503373ffffffffffffffffffffffffffffffffffffffff163273ffffffffffffffffffffffffffffffffffffffff16146116cb576040517f08c379a00000000000000000000000000000000000000000000000000000000081526004016116c290613018565b60405180910390fd5b8161013460008282546116de91906131c6565b925050819055508161013560003373ffffffffffffffffffffffffffffffffffffffff1673ffffffffffffffffffffffffffffffffffffffff168152602001908152602001600020600082825461173591906131c6565b9250508190555061012e60009054906101000a900473ffffffffffffffffffffffffffffffffffffffff1673ffffffffffffffffffffffffffffffffffffffff166323b872dd3330856040518463ffffffff1660e01b815260040161179c93929190612e6a565b602060405180830381600087803b1580156117b657600080fd5b505af11580156117ca573d6000803e3d6000fd5b505050506040513d601f19601f820116820180604052508101906117ee91906129a7565b505050565b6101305481565b61012d60009054906101000a900473ffffffffffffffffffffffffffffffffffffffff1681565b7f9f2df0fed2c77648de5860a4cc508cd0818c85b8b8a1ab4ceeef8d981c8956a681565b61184e82610ad7565b61185781611a4c565b6118618383611b49565b505050565b6101315481565b7f65d7a28e3265b37a6474929f336521b332c1681b933f6cb9f3376673440d862a81565b600061012e60009054906101000a900473ffffffffffffffffffffffffffffffffffffffff1673ffffffffffffffffffffffffffffffffffffffff166370a08231336040518263ffffffff1660e01b81526004016118ef9190612e4f565b60206040518083038186803b15801561190757600080fd5b505afa15801561191b573d6000803e3d6000fd5b505050506040513d601f19601f8201168201806040525081019061193f9190612ab0565b905090565b7f189ab7a9244df0848122154315af71fe140f3db0fe014031783b0946b8c9d2e381565b6000808273ffffffffffffffffffffffffffffffffffffffff163b119050919050565b6000806101345414156119a3576101315490506119df565b6101345461012f5461013054426119ba91906132a7565b6119c4919061324d565b6119ce919061321c565b610131546119dc91906131c6565b90505b90565b60007f01ffc9a7000000000000000000000000000000000000000000000000000000007bffffffffffffffffffffffffffffffffffffffffffffffffffffffff1916827bffffffffffffffffffffffffffffffffffffffffffffffffffffffff1916149050919050565b611a5d81611a58611b41565b61215d565b50565b611a6a82826114f6565b611b3d5760016065600084815260200190815260200160002060000160008373ffffffffffffffffffffffffffffffffffffffff1673ffffffffffffffffffffffffffffffffffffffff16815260200190815260200160002060006101000a81548160ff021916908315150217905550611ae2611b41565b73ffffffffffffffffffffffffffffffffffffffff168173ffffffffffffffffffffffffffffffffffffffff16837f2f8788117e7eff1d82e926ec794901d17c78024a50270940304540a733656f0d60405160405180910390a45b5050565b600033905090565b611b5382826114f6565b15611c275760006065600084815260200190815260200160002060000160008373ffffffffffffffffffffffffffffffffffffffff1673ffffffffffffffffffffffffffffffffffffffff16815260200190815260200160002060006101000a81548160ff021916908315150217905550611bcc611b41565b73ffffffffffffffffffffffffffffffffffffffff168173ffffffffffffffffffffffffffffffffffffffff16837ff6391f5c32d9c69d2a47ea670b442974b53935d1edc7fd64eb21e047a839171b60405160405180910390a45b5050565b6000611c597f360894a13ba1a3210667c828492db98dca3e2076cc3735a920a3ca505d382bbc60001b6121fa565b60000160009054906101000a900473ffffffffffffffffffffffffffffffffffffffff16905090565b7f189ab7a9244df0848122154315af71fe140f3db0fe014031783b0946b8c9d2e3611cac81611a4c565b5050565b611cdc7f4910fdfa16fed3260ed0e7147f7cc6da11a60208b5b9406d12a635614ffd914360001b612204565b60000160009054906101000a900460ff1615611d0057611cfb8361220e565b611e28565b8273ffffffffffffffffffffffffffffffffffffffff166352d1902d6040518163ffffffff1660e01b815260040160206040518083038186803b158015611d4657600080fd5b505afa925050508015611d7757506040513d601f19601f82011682018060405250810190611d7491906129f9565b60015b611db6576040517f08c379a0000000000000000000000000000000000000000000000000000000008152600401611dad90613078565b60405180910390fd5b7f360894a13ba1a3210667c828492db98dca3e2076cc3735a920a3ca505d382bbc60001b8114611e1b576040517f08c379a0000000000000000000000000000000000000000000000000000000008152600401611e1290613038565b60405180910390fd5b50611e278383836122c7565b5b505050565b611e356113a5565b611e74576040517f08c379a0000000000000000000000000000000000000000000000000000000008152600401611e6b90612f78565b60405180910390fd5b6000609760006101000a81548160ff0219169083151502179055507f5db9ee0a495bf2e6ff9c91a7834c1ba4fdd244a5e8aa4e537bd38aeae4b073aa611eb8611b41565b604051611ec59190612e4f565b60405180910390a1565b60008060019054906101000a900460ff1615611f465760018260ff16148015611efe5750611efc30611968565b155b611f3d576040517f08c379a0000000000000000000000000000000000000000000000000000000008152600401611f3490613058565b60405180910390fd5b60009050611fba565b8160ff1660008054906101000a900460ff1660ff1610611f9b576040517f08c379a0000000000000000000000000000000000000000000000000000000008152600401611f9290613058565b60405180910390fd5b816000806101000a81548160ff021916908360ff160217905550600190505b919050565b600060019054906101000a900460ff1661200e576040517f08c379a0000000000000000000000000000000000000000000000000000000008152600401612005906130d8565b60405180910390fd5b565b600060019054906101000a900460ff1661205f576040517f08c379a0000000000000000000000000000000000000000000000000000000008152600401612056906130d8565b60405180910390fd5b6120676122f3565b565b600060019054906101000a900460ff166120b8576040517f08c379a00000000000000000000000000000000000000000000000000000000081526004016120af906130d8565b60405180910390fd5b565b6120c26113a5565b15612102576040517f08c379a00000000000000000000000000000000000000000000000000000000081526004016120f990612ff8565b60405180910390fd5b6001609760006101000a81548160ff0219169083151502179055507f62e78cea01bee320cd4e420270b5ea74000d11b0c9f74754ebdbfc544b05a258612146611b41565b6040516121539190612e4f565b60405180910390a1565b61216782826114f6565b6121f65761218c8173ffffffffffffffffffffffffffffffffffffffff16601461235f565b61219a8360001c602061235f565b6040516020016121ab929190612e15565b6040516020818303038152906040526040517f08c379a00000000000000000000000000000000000000000000000000000000081526004016121ed9190612f36565b60405180910390fd5b5050565b6000819050919050565b6000819050919050565b61221781611968565b612256576040517f08c379a000000000000000000000000000000000000000000000000000000000815260040161224d90613098565b60405180910390fd5b806122837f360894a13ba1a3210667c828492db98dca3e2076cc3735a920a3ca505d382bbc60001b6121fa565b60000160006101000a81548173ffffffffffffffffffffffffffffffffffffffff021916908373ffffffffffffffffffffffffffffffffffffffff16021790555050565b6122d083612659565b6000825111806122dd5750805b156122ee576122ec83836126a8565b505b505050565b600060019054906101000a900460ff16612342576040517f08c379a0000000000000000000000000000000000000000000000000000000008152600401612339906130d8565b60405180910390fd5b6000609760006101000a81548160ff021916908315150217905550565b606060006002836002612372919061324d565b61237c91906131c6565b67ffffffffffffffff8111156123bb577f4e487b7100000000000000000000000000000000000000000000000000000000600052604160045260246000fd5b6040519080825280601f01601f1916602001820160405280156123ed5781602001600182028036833780820191505090505b5090507f30000000000000000000000000000000000000000000000000000000000000008160008151811061244b577f4e487b7100000000000000000000000000000000000000000000000000000000600052603260045260246000fd5b60200101907effffffffffffffffffffffffffffffffffffffffffffffffffffffffffffff1916908160001a9053507f7800000000000000000000000000000000000000000000000000000000000000816001815181106124d5577f4e487b7100000000000000000000000000000000000000000000000000000000600052603260045260246000fd5b60200101907effffffffffffffffffffffffffffffffffffffffffffffffffffffffffffff1916908160001a90535060006001846002612515919061324d565b61251f91906131c6565b90505b600181111561260b577f3031323334353637383961626364656600000000000000000000000000000000600f861660108110612587577f4e487b7100000000000000000000000000000000000000000000000000000000600052603260045260246000fd5b1a60f81b8282815181106125c4577f4e487b7100000000000000000000000000000000000000000000000000000000600052603260045260246000fd5b60200101907effffffffffffffffffffffffffffffffffffffffffffffffffffffffffffff1916908160001a905350600485901c945080612604906133de565b9050612522565b506000841461264f576040517f08c379a000000000000000000000000000000000000000000000000000000000815260040161264690612f58565b60405180910390fd5b8091505092915050565b6126628161220e565b8073ffffffffffffffffffffffffffffffffffffffff167fbc7cd75a20ee27fd9adebab32041f755214dbc6bffa90cc0225b39da2e5c2d3b60405160405180910390a250565b60606126b383611968565b6126f2576040517f08c379a00000000000000000000000000000000000000000000000000000000081526004016126e9906130b8565b60405180910390fd5b6000808473ffffffffffffffffffffffffffffffffffffffff168460405161271a9190612dfe565b600060405180830381855af49150503d8060008114612755576040519150601f19603f3d011682016040523d82523d6000602084013e61275a565b606091505b509150915061278282826040518060600160405280602781526020016139576027913961278c565b9250505092915050565b6060831561279c578290506127ec565b6000835111156127af5782518084602001fd5b816040517f08c379a00000000000000000000000000000000000000000000000000000000081526004016127e39190612f36565b60405180910390fd5b9392505050565b600061280661280184613158565b613133565b90508281526020810184848401111561281e57600080fd5b61282984828561339c565b509392505050565b600081359050612840816138e3565b92915050565b600081519050612855816138fa565b92915050565b60008135905061286a81613911565b92915050565b60008151905061287f81613911565b92915050565b60008135905061289481613928565b92915050565b600082601f8301126128ab57600080fd5b81356128bb8482602086016127f3565b91505092915050565b6000813590506128d38161393f565b92915050565b6000815190506128e88161393f565b92915050565b60006020828403121561290057600080fd5b600061290e84828501612831565b91505092915050565b6000806040838503121561292a57600080fd5b600061293885828601612831565b925050602061294985828601612831565b9150509250929050565b6000806040838503121561296657600080fd5b600061297485828601612831565b925050602083013567ffffffffffffffff81111561299157600080fd5b61299d8582860161289a565b9150509250929050565b6000602082840312156129b957600080fd5b60006129c784828501612846565b91505092915050565b6000602082840312156129e257600080fd5b60006129f08482850161285b565b91505092915050565b600060208284031215612a0b57600080fd5b6000612a1984828501612870565b91505092915050565b60008060408385031215612a3557600080fd5b6000612a438582860161285b565b9250506020612a5485828601612831565b9150509250929050565b600060208284031215612a7057600080fd5b6000612a7e84828501612885565b91505092915050565b600060208284031215612a9957600080fd5b6000612aa7848285016128c4565b91505092915050565b600060208284031215612ac257600080fd5b6000612ad0848285016128d9565b91505092915050565b612ae2816132db565b82525050565b612af1816132ed565b82525050565b612b00816132f9565b82525050565b6000612b1182613189565b612b1b818561319f565b9350612b2b8185602086016133ab565b80840191505092915050565b612b4081613366565b82525050565b612b4f8161338a565b82525050565b6000612b6082613194565b612b6a81856131aa565b9350612b7a8185602086016133ab565b612b83816134c6565b840191505092915050565b6000612b9982613194565b612ba381856131bb565b9350612bb38185602086016133ab565b80840191505092915050565b6000612bcc6020836131aa565b9150612bd7826134d7565b602082019050919050565b6000612bef6014836131aa565b9150612bfa82613500565b602082019050919050565b6000612c12602c836131aa565b9150612c1d82613529565b604082019050919050565b6000612c35602c836131aa565b9150612c4082613578565b604082019050919050565b6000612c586038836131aa565b9150612c63826135c7565b604082019050919050565b6000612c7b6010836131aa565b9150612c8682613616565b602082019050919050565b6000612c9e600f836131aa565b9150612ca98261363f565b602082019050919050565b6000612cc16029836131aa565b9150612ccc82613668565b604082019050919050565b6000612ce4602e836131aa565b9150612cef826136b7565b604082019050919050565b6000612d07602e836131aa565b9150612d1282613706565b604082019050919050565b6000612d2a602d836131aa565b9150612d3582613755565b604082019050919050565b6000612d4d6026836131aa565b9150612d58826137a4565b604082019050919050565b6000612d70602b836131aa565b9150612d7b826137f3565b604082019050919050565b6000612d936017836131bb565b9150612d9e82613842565b601782019050919050565b6000612db66011836131bb565b9150612dc18261386b565b601182019050919050565b6000612dd9602f836131aa565b9150612de482613894565b604082019050919050565b612df88161334f565b82525050565b6000612e0a8284612b06565b915081905092915050565b6000612e2082612d86565b9150612e2c8285612b8e565b9150612e3782612da9565b9150612e438284612b8e565b91508190509392505050565b6000602082019050612e646000830184612ad9565b92915050565b6000606082019050612e7f6000830186612ad9565b612e8c6020830185612ad9565b612e996040830184612def565b949350505050565b6000604082019050612eb66000830185612ad9565b612ec36020830184612def565b9392505050565b6000602082019050612edf6000830184612ae8565b92915050565b6000602082019050612efa6000830184612af7565b92915050565b6000602082019050612f156000830184612b37565b92915050565b6000602082019050612f306000830184612b46565b92915050565b60006020820190508181036000830152612f508184612b55565b905092915050565b60006020820190508181036000830152612f7181612bbf565b9050919050565b60006020820190508181036000830152612f9181612be2565b9050919050565b60006020820190508181036000830152612fb181612c05565b9050919050565b60006020820190508181036000830152612fd181612c28565b9050919050565b60006020820190508181036000830152612ff181612c4b565b9050919050565b6000602082019050818103600083015261301181612c6e565b9050919050565b6000602082019050818103600083015261303181612c91565b9050919050565b6000602082019050818103600083015261305181612cb4565b9050919050565b6000602082019050818103600083015261307181612cd7565b9050919050565b6000602082019050818103600083015261309181612cfa565b9050919050565b600060208201905081810360008301526130b181612d1d565b9050919050565b600060208201905081810360008301526130d181612d40565b9050919050565b600060208201905081810360008301526130f181612d63565b9050919050565b6000602082019050818103600083015261311181612dcc565b9050919050565b600060208201905061312d6000830184612def565b92915050565b600061313d61314e565b90506131498282613408565b919050565b6000604051905090565b600067ffffffffffffffff82111561317357613172613497565b5b61317c826134c6565b9050602081019050919050565b600081519050919050565b600081519050919050565b600081905092915050565b600082825260208201905092915050565b600081905092915050565b60006131d18261334f565b91506131dc8361334f565b9250827fffffffffffffffffffffffffffffffffffffffffffffffffffffffffffffffff0382111561321157613210613439565b5b828201905092915050565b60006132278261334f565b91506132328361334f565b92508261324257613241613468565b5b828204905092915050565b60006132588261334f565b91506132638361334f565b9250817fffffffffffffffffffffffffffffffffffffffffffffffffffffffffffffffff048311821515161561329c5761329b613439565b5b828202905092915050565b60006132b28261334f565b91506132bd8361334f565b9250828210156132d0576132cf613439565b5b828203905092915050565b60006132e68261332f565b9050919050565b60008115159050919050565b6000819050919050565b60007fffffffff0000000000000000000000000000000000000000000000000000000082169050919050565b600073ffffffffffffffffffffffffffffffffffffffff82169050919050565b6000819050919050565b600060ff82169050919050565b600061337182613378565b9050919050565b60006133838261332f565b9050919050565b600061339582613359565b9050919050565b82818337600083830152505050565b60005b838110156133c95780820151818401526020810190506133ae565b838111156133d8576000848401525b50505050565b60006133e98261334f565b915060008214156133fd576133fc613439565b5b600182039050919050565b613411826134c6565b810181811067ffffffffffffffff821117156134305761342f613497565b5b80604052505050565b7f4e487b7100000000000000000000000000000000000000000000000000000000600052601160045260246000fd5b7f4e487b7100000000000000000000000000000000000000000000000000000000600052601260045260246000fd5b7f4e487b7100000000000000000000000000000000000000000000000000000000600052604160045260246000fd5b6000601f19601f8301169050919050565b7f537472696e67733a20686578206c656e67746820696e73756666696369656e74600082015250565b7f5061757361626c653a206e6f7420706175736564000000000000000000000000600082015250565b7f46756e6374696f6e206d7573742062652063616c6c6564207468726f7567682060008201527f64656c656761746563616c6c0000000000000000000000000000000000000000602082015250565b7f46756e6374696f6e206d7573742062652063616c6c6564207468726f7567682060008201527f6163746976652070726f78790000000000000000000000000000000000000000602082015250565b7f555550535570677261646561626c653a206d757374206e6f742062652063616c60008201527f6c6564207468726f7567682064656c656761746563616c6c0000000000000000602082015250565b7f5061757361626c653a2070617573656400000000000000000000000000000000600082015250565b7f696e76616c696420616464726573730000000000000000000000000000000000600082015250565b7f45524331393637557067726164653a20756e737570706f727465642070726f7860008201527f6961626c65555549440000000000000000000000000000000000000000000000602082015250565b7f496e697469616c697a61626c653a20636f6e747261637420697320616c72656160008201527f647920696e697469616c697a6564000000000000000000000000000000000000602082015250565b7f45524331393637557067726164653a206e657720696d706c656d656e7461746960008201527f6f6e206973206e6f742055555053000000000000000000000000000000000000602082015250565b7f455243313936373a206e657720696d706c656d656e746174696f6e206973206e60008201527f6f74206120636f6e747261637400000000000000000000000000000000000000602082015250565b7f416464726573733a2064656c65676174652063616c6c20746f206e6f6e2d636f60008201527f6e74726163740000000000000000000000000000000000000000000000000000602082015250565b7f496e697469616c697a61626c653a20636f6e7472616374206973206e6f74206960008201527f6e697469616c697a696e67000000000000000000000000000000000000000000602082015250565b7f416363657373436f6e74726f6c3a206163636f756e7420000000000000000000600082015250565b7f206973206d697373696e6720726f6c6520000000000000000000000000000000600082015250565b7f416363657373436f6e74726f6c3a2063616e206f6e6c792072656e6f756e636560008201527f20726f6c657320666f722073656c660000000000000000000000000000000000602082015250565b6138ec816132db565b81146138f757600080fd5b50565b613903816132ed565b811461390e57600080fd5b50565b61391a816132f9565b811461392557600080fd5b50565b61393181613303565b811461393c57600080fd5b50565b6139488161334f565b811461395357600080fd5b5056fe416464726573733a206c6f772d6c6576656c2064656c65676174652063616c6c206661696c6564a2646970667358221220965608f2c1e7f376035fbc989f43f5c543f45e8aadb3bb8bbd09bc88ac7e0ec264736f6c63430008040033",
  "linkReferences": {},
  "deployedLinkReferences": {}
}