{
  "_format": "hh-sol-artifact-1",
  "contractName": "RewardsToken",
  "sourceName": "contracts/RewardsToken.sol",
  "abi": [
    {
      "inputs": [],
      "stateMutability": "nonpayable",
      "type": "constructor"
    },
    {
      "anonymous": false,
      "inputs": [
        {
          "indexed": false,
          "internalType": "address",
          "name": "previousAdmin",
          "type": "address"
        },
        {
          "indexed": false,
          "internalType": "address",
          "name": "newAdmin",
          "type": "address"
        }
      ],
      "name": "AdminChanged",
      "type": "event"
    },
    {
      "anonymous": false,
      "inputs": [
        {
          "indexed": true,
          "internalType": "address",
          "name": "owner",
          "type": "address"
        },
        {
          "indexed": true,
          "internalType": "address",
          "name": "spender",
          "type": "address"
        },
        {
          "indexed": false,
          "internalType": "uint256",
          "name": "value",
          "type": "uint256"
        }
      ],
      "name": "Approval",
      "type": "event"
    },
    {
      "anonymous": false,
      "inputs": [
        {
          "indexed": true,
          "internalType": "address",
          "name": "beacon",
          "type": "address"
        }
      ],
      "name": "BeaconUpgraded",
      "type": "event"
    },
    {
      "anonymous": false,
      "inputs": [
        {
          "indexed": false,
          "internalType": "uint8",
          "name": "version",
          "type": "uint8"
        }
      ],
      "name": "Initialized",
      "type": "event"
    },
    {
      "anonymous": false,
      "inputs": [
        {
          "indexed": false,
          "internalType": "address",
          "name": "account",
          "type": "address"
        }
      ],
      "name": "Paused",
      "type": "event"
    },
    {
      "anonymous": false,
      "inputs": [
        {
          "indexed": true,
          "internalType": "bytes32",
          "name": "role",
          "type": "bytes32"
        },
        {
          "indexed": true,
          "internalType": "bytes32",
          "name": "previousAdminRole",
          "type": "bytes32"
        },
        {
          "indexed": true,
          "internalType": "bytes32",
          "name": "newAdminRole",
          "type": "bytes32"
        }
      ],
      "name": "RoleAdminChanged",
      "type": "event"
    },
    {
      "anonymous": false,
      "inputs": [
        {
          "indexed": true,
          "internalType": "bytes32",
          "name": "role",
          "type": "bytes32"
        },
        {
          "indexed": true,
          "internalType": "address",
          "name": "account",
          "type": "address"
        },
        {
          "indexed": true,
          "internalType": "address",
          "name": "sender",
          "type": "address"
        }
      ],
      "name": "RoleGranted",
      "type": "event"
    },
    {
      "anonymous": false,
      "inputs": [
        {
          "indexed": true,
          "internalType": "bytes32",
          "name": "role",
          "type": "bytes32"
        },
        {
          "indexed": true,
          "internalType": "address",
          "name": "account",
          "type": "address"
        },
        {
          "indexed": true,
          "internalType": "address",
          "name": "sender",
          "type": "address"
        }
      ],
      "name": "RoleRevoked",
      "type": "event"
    },
    {
      "anonymous": false,
      "inputs": [
        {
          "indexed": false,
          "internalType": "uint256",
          "name": "id",
          "type": "uint256"
        }
      ],
      "name": "Snapshot",
      "type": "event"
    },
    {
      "anonymous": false,
      "inputs": [
        {
          "indexed": true,
          "internalType": "address",
          "name": "from",
          "type": "address"
        },
        {
          "indexed": true,
          "internalType": "address",
          "name": "to",
          "type": "address"
        },
        {
          "indexed": false,
          "internalType": "uint256",
          "name": "value",
          "type": "uint256"
        }
      ],
      "name": "Transfer",
      "type": "event"
    },
    {
      "anonymous": false,
      "inputs": [
        {
          "indexed": false,
          "internalType": "address",
          "name": "account",
          "type": "address"
        }
      ],
      "name": "Unpaused",
      "type": "event"
    },
    {
      "anonymous": false,
      "inputs": [
        {
          "indexed": true,
          "internalType": "address",
          "name": "implementation",
          "type": "address"
        }
      ],
      "name": "Upgraded",
      "type": "event"
    },
    {
      "inputs": [],
      "name": "DEFAULT_ADMIN_ROLE",
      "outputs": [
        {
          "internalType": "bytes32",
          "name": "",
          "type": "bytes32"
        }
      ],
      "stateMutability": "view",
      "type": "function"
    },
    {
      "inputs": [],
      "name": "DOMAIN_SEPARATOR",
      "outputs": [
        {
          "internalType": "bytes32",
          "name": "",
          "type": "bytes32"
        }
      ],
      "stateMutability": "view",
      "type": "function"
    },
    {
      "inputs": [],
      "name": "MINTER_ROLE",
      "outputs": [
        {
          "internalType": "bytes32",
          "name": "",
          "type": "bytes32"
        }
      ],
      "stateMutability": "view",
      "type": "function"
    },
    {
      "inputs": [],
      "name": "PAUSER_ROLE",
      "outputs": [
        {
          "internalType": "bytes32",
          "name": "",
          "type": "bytes32"
        }
      ],
      "stateMutability": "view",
      "type": "function"
    },
    {
      "inputs": [],
      "name": "SNAPSHOT_ROLE",
      "outputs": [
        {
          "internalType": "bytes32",
          "name": "",
          "type": "bytes32"
        }
      ],
      "stateMutability": "view",
      "type": "function"
    },
    {
      "inputs": [],
      "name": "UPGRADER_ROLE",
      "outputs": [
        {
          "internalType": "bytes32",
          "name": "",
          "type": "bytes32"
        }
      ],
      "stateMutability": "view",
      "type": "function"
    },
    {
      "inputs": [
        {
          "internalType": "address",
          "name": "owner",
          "type": "address"
        },
        {
          "internalType": "address",
          "name": "spender",
          "type": "address"
        }
      ],
      "name": "allowance",
      "outputs": [
        {
          "internalType": "uint256",
          "name": "",
          "type": "uint256"
        }
      ],
      "stateMutability": "view",
      "type": "function"
    },
    {
      "inputs": [
        {
          "internalType": "address",
          "name": "spender",
          "type": "address"
        },
        {
          "internalType": "uint256",
          "name": "amount",
          "type": "uint256"
        }
      ],
      "name": "approve",
      "outputs": [
        {
          "internalType": "bool",
          "name": "",
          "type": "bool"
        }
      ],
      "stateMutability": "nonpayable",
      "type": "function"
    },
    {
      "inputs": [
        {
          "internalType": "address",
          "name": "account",
          "type": "address"
        }
      ],
      "name": "balanceOf",
      "outputs": [
        {
          "internalType": "uint256",
          "name": "",
          "type": "uint256"
        }
      ],
      "stateMutability": "view",
      "type": "function"
    },
    {
      "inputs": [
        {
          "internalType": "address",
          "name": "account",
          "type": "address"
        },
        {
          "internalType": "uint256",
          "name": "snapshotId",
          "type": "uint256"
        }
      ],
      "name": "balanceOfAt",
      "outputs": [
        {
          "internalType": "uint256",
          "name": "",
          "type": "uint256"
        }
      ],
      "stateMutability": "view",
      "type": "function"
    },
    {
      "inputs": [
        {
          "internalType": "uint256",
          "name": "amount",
          "type": "uint256"
        }
      ],
      "name": "burn",
      "outputs": [],
      "stateMutability": "nonpayable",
      "type": "function"
    },
    {
      "inputs": [
        {
          "internalType": "address",
          "name": "account",
          "type": "address"
        },
        {
          "internalType": "uint256",
          "name": "amount",
          "type": "uint256"
        }
      ],
      "name": "burnFrom",
      "outputs": [],
      "stateMutability": "nonpayable",
      "type": "function"
    },
    {
      "inputs": [],
      "name": "decimals",
      "outputs": [
        {
          "internalType": "uint8",
          "name": "",
          "type": "uint8"
        }
      ],
      "stateMutability": "view",
      "type": "function"
    },
    {
      "inputs": [
        {
          "internalType": "address",
          "name": "spender",
          "type": "address"
        },
        {
          "internalType": "uint256",
          "name": "subtractedValue",
          "type": "uint256"
        }
      ],
      "name": "decreaseAllowance",
      "outputs": [
        {
          "internalType": "bool",
          "name": "",
          "type": "bool"
        }
      ],
      "stateMutability": "nonpayable",
      "type": "function"
    },
    {
      "inputs": [
        {
          "internalType": "bytes32",
          "name": "role",
          "type": "bytes32"
        }
      ],
      "name": "getRoleAdmin",
      "outputs": [
        {
          "internalType": "bytes32",
          "name": "",
          "type": "bytes32"
        }
      ],
      "stateMutability": "view",
      "type": "function"
    },
    {
      "inputs": [
        {
          "internalType": "bytes32",
          "name": "role",
          "type": "bytes32"
        },
        {
          "internalType": "address",
          "name": "account",
          "type": "address"
        }
      ],
      "name": "grantRole",
      "outputs": [],
      "stateMutability": "nonpayable",
      "type": "function"
    },
    {
      "inputs": [
        {
          "internalType": "bytes32",
          "name": "role",
          "type": "bytes32"
        },
        {
          "internalType": "address",
          "name": "account",
          "type": "address"
        }
      ],
      "name": "hasRole",
      "outputs": [
        {
          "internalType": "bool",
          "name": "",
          "type": "bool"
        }
      ],
      "stateMutability": "view",
      "type": "function"
    },
    {
      "inputs": [
        {
          "internalType": "address",
          "name": "spender",
          "type": "address"
        },
        {
          "internalType": "uint256",
          "name": "addedValue",
          "type": "uint256"
        }
      ],
      "name": "increaseAllowance",
      "outputs": [
        {
          "internalType": "bool",
          "name": "",
          "type": "bool"
        }
      ],
      "stateMutability": "nonpayable",
      "type": "function"
    },
    {
      "inputs": [],
      "name": "initialize",
      "outputs": [],
      "stateMutability": "nonpayable",
      "type": "function"
    },
    {
      "inputs": [
        {
          "internalType": "address",
          "name": "to",
          "type": "address"
        },
        {
          "internalType": "uint256",
          "name": "amount",
          "type": "uint256"
        }
      ],
      "name": "mint",
      "outputs": [],
      "stateMutability": "nonpayable",
      "type": "function"
    },
    {
      "inputs": [],
      "name": "name",
      "outputs": [
        {
          "internalType": "string",
          "name": "",
          "type": "string"
        }
      ],
      "stateMutability": "view",
      "type": "function"
    },
    {
      "inputs": [
        {
          "internalType": "address",
          "name": "owner",
          "type": "address"
        }
      ],
      "name": "nonces",
      "outputs": [
        {
          "internalType": "uint256",
          "name": "",
          "type": "uint256"
        }
      ],
      "stateMutability": "view",
      "type": "function"
    },
    {
      "inputs": [],
      "name": "pause",
      "outputs": [],
      "stateMutability": "nonpayable",
      "type": "function"
    },
    {
      "inputs": [],
      "name": "paused",
      "outputs": [
        {
          "internalType": "bool",
          "name": "",
          "type": "bool"
        }
      ],
      "stateMutability": "view",
      "type": "function"
    },
    {
      "inputs": [
        {
          "internalType": "address",
          "name": "owner",
          "type": "address"
        },
        {
          "internalType": "address",
          "name": "spender",
          "type": "address"
        },
        {
          "internalType": "uint256",
          "name": "value",
          "type": "uint256"
        },
        {
          "internalType": "uint256",
          "name": "deadline",
          "type": "uint256"
        },
        {
          "internalType": "uint8",
          "name": "v",
          "type": "uint8"
        },
        {
          "internalType": "bytes32",
          "name": "r",
          "type": "bytes32"
        },
        {
          "internalType": "bytes32",
          "name": "s",
          "type": "bytes32"
        }
      ],
      "name": "permit",
      "outputs": [],
      "stateMutability": "nonpayable",
      "type": "function"
    },
    {
      "inputs": [],
      "name": "proxiableUUID",
      "outputs": [
        {
          "internalType": "bytes32",
          "name": "",
          "type": "bytes32"
        }
      ],
      "stateMutability": "view",
      "type": "function"
    },
    {
      "inputs": [
        {
          "internalType": "bytes32",
          "name": "role",
          "type": "bytes32"
        },
        {
          "internalType": "address",
          "name": "account",
          "type": "address"
        }
      ],
      "name": "renounceRole",
      "outputs": [],
      "stateMutability": "nonpayable",
      "type": "function"
    },
    {
      "inputs": [
        {
          "internalType": "bytes32",
          "name": "role",
          "type": "bytes32"
        },
        {
          "internalType": "address",
          "name": "account",
          "type": "address"
        }
      ],
      "name": "revokeRole",
      "outputs": [],
      "stateMutability": "nonpayable",
      "type": "function"
    },
    {
      "inputs": [],
      "name": "snapshot",
      "outputs": [],
      "stateMutability": "nonpayable",
      "type": "function"
    },
    {
      "inputs": [
        {
          "internalType": "bytes4",
          "name": "interfaceId",
          "type": "bytes4"
        }
      ],
      "name": "supportsInterface",
      "outputs": [
        {
          "internalType": "bool",
          "name": "",
          "type": "bool"
        }
      ],
      "stateMutability": "view",
      "type": "function"
    },
    {
      "inputs": [],
      "name": "symbol",
      "outputs": [
        {
          "internalType": "string",
          "name": "",
          "type": "string"
        }
      ],
      "stateMutability": "view",
      "type": "function"
    },
    {
      "inputs": [],
      "name": "totalSupply",
      "outputs": [
        {
          "internalType": "uint256",
          "name": "",
          "type": "uint256"
        }
      ],
      "stateMutability": "view",
      "type": "function"
    },
    {
      "inputs": [
        {
          "internalType": "uint256",
          "name": "snapshotId",
          "type": "uint256"
        }
      ],
      "name": "totalSupplyAt",
      "outputs": [
        {
          "internalType": "uint256",
          "name": "",
          "type": "uint256"
        }
      ],
      "stateMutability": "view",
      "type": "function"
    },
    {
      "inputs": [
        {
          "internalType": "address",
          "name": "to",
          "type": "address"
        },
        {
          "internalType": "uint256",
          "name": "amount",
          "type": "uint256"
        }
      ],
      "name": "transfer",
      "outputs": [
        {
          "internalType": "bool",
          "name": "",
          "type": "bool"
        }
      ],
      "stateMutability": "nonpayable",
      "type": "function"
    },
    {
      "inputs": [
        {
          "internalType": "address",
          "name": "from",
          "type": "address"
        },
        {
          "internalType": "address",
          "name": "to",
          "type": "address"
        },
        {
          "internalType": "uint256",
          "name": "amount",
          "type": "uint256"
        }
      ],
      "name": "transferFrom",
      "outputs": [
        {
          "internalType": "bool",
          "name": "",
          "type": "bool"
        }
      ],
      "stateMutability": "nonpayable",
      "type": "function"
    },
    {
      "inputs": [
        {
          "internalType": "address",
          "name": "to",
          "type": "address"
        },
        {
          "internalType": "uint256",
          "name": "amount",
          "type": "uint256"
        }
      ],
      "name": "transferTo",
      "outputs": [],
      "stateMutability": "nonpayable",
      "type": "function"
    },
    {
      "inputs": [],
      "name": "unpause",
      "outputs": [],
      "stateMutability": "nonpayable",
      "type": "function"
    },
    {
      "inputs": [
        {
          "internalType": "address",
          "name": "newImplementation",
          "type": "address"
        }
      ],
      "name": "upgradeTo",
      "outputs": [],
      "stateMutability": "nonpayable",
      "type": "function"
    },
    {
      "inputs": [
        {
          "internalType": "address",
          "name": "newImplementation",
          "type": "address"
        },
        {
          "internalType": "bytes",
          "name": "data",
          "type": "bytes"
        }
      ],
      "name": "upgradeToAndCall",
      "outputs": [],
      "stateMutability": "payable",
      "type": "function"
    }
  ],
  "bytecode": "0x60a06040523073ffffffffffffffffffffffffffffffffffffffff1660809073ffffffffffffffffffffffffffffffffffffffff1660601b8152503480156200004757600080fd5b50620000586200005e60201b60201c565b62000245565b6200007060ff6200007360201b60201c565b50565b60008060019054906101000a900460ff1615620000fd5760018260ff16148015620000b15750620000af306200017960201b620018601760201c565b155b620000f3576040517f08c379a0000000000000000000000000000000000000000000000000000000008152600401620000ea90620001c3565b60405180910390fd5b6000905062000174565b8160ff1660008054906101000a900460ff1660ff161062000155576040517f08c379a00000000000000000000000000000000000000000000000000000000081526004016200014c90620001c3565b60405180910390fd5b816000806101000a81548160ff021916908360ff160217905550600190505b919050565b6000808273ffffffffffffffffffffffffffffffffffffffff163b119050919050565b6000620001ab602e83620001e5565b9150620001b882620001f6565b604082019050919050565b60006020820190508181036000830152620001de816200019c565b9050919050565b600082825260208201905092915050565b7f496e697469616c697a61626c653a20636f6e747261637420697320616c72656160008201527f647920696e697469616c697a6564000000000000000000000000000000000000602082015250565b60805160601c615b286200028060003960008181610b9e01528181610c2d01528181610e7601528181610f050152610fb50152615b286000f3fe6080604052600436106102305760003560e01c80635c975abb1161012e578063981b24d0116100ab578063d53913931161006f578063d539139314610854578063d547741f1461087f578063dd62ed3e146108a8578063e63ab1e9146108e5578063f72c0d8b1461091057610230565b8063981b24d014610749578063a217fddf14610786578063a457c2d7146107b1578063a9059cbb146107ee578063d505accf1461082b57610230565b80638129fc1c116100f25780638129fc1c1461069c5780638456cb59146106b357806391d14854146106ca57806395d89b41146107075780639711715a1461073257610230565b80635c975abb146105a35780637028e2cd146105ce57806370a08231146105f957806379cc6790146106365780637ecebe001461065f57610230565b80633644e515116101bc57806340c10f191161018057806340c10f19146104cd57806342966c68146104f65780634ee2cd7e1461051f5780634f1ef2861461055c57806352d1902d1461057857610230565b80633644e515146103fc57806336568abe146104275780633659cfe61461045057806339509351146104795780633f4ba83a146104b657610230565b806323b872dd1161020357806323b872dd14610305578063248a9ca3146103425780632ccb1b301461037f5780632f2ff15d146103a8578063313ce567146103d157610230565b806301ffc9a71461023557806306fdde0314610272578063095ea7b31461029d57806318160ddd146102da575b600080fd5b34801561024157600080fd5b5061025c6004803603810190610257919061405c565b61093b565b6040516102699190614703565b60405180910390f35b34801561027e57600080fd5b506102876109b5565b604051610294919061484d565b60405180910390f35b3480156102a957600080fd5b506102c460048036038101906102bf9190613f92565b610a47565b6040516102d19190614703565b60405180910390f35b3480156102e657600080fd5b506102ef610a6a565b6040516102fc9190614c4f565b60405180910390f35b34801561031157600080fd5b5061032c60048036038101906103279190613e51565b610a74565b6040516103399190614703565b60405180910390f35b34801561034e57600080fd5b5061036960048036038101906103649190613fce565b610aa3565b604051610376919061471e565b60405180910390f35b34801561038b57600080fd5b506103a660048036038101906103a19190613f92565b610ac3565b005b3480156103b457600080fd5b506103cf60048036038101906103ca9190614020565b610ae0565b005b3480156103dd57600080fd5b506103e6610b01565b6040516103f39190614c6a565b60405180910390f35b34801561040857600080fd5b50610411610b0a565b60405161041e919061471e565b60405180910390f35b34801561043357600080fd5b5061044e60048036038101906104499190614020565b610b19565b005b34801561045c57600080fd5b5061047760048036038101906104729190613dec565b610b9c565b005b34801561048557600080fd5b506104a0600480360381019061049b9190613f92565b610d4b565b6040516104ad9190614703565b60405180910390f35b3480156104c257600080fd5b506104cb610d82565b005b3480156104d957600080fd5b506104f460048036038101906104ef9190613f92565b610db7565b005b34801561050257600080fd5b5061051d60048036038101906105189190614085565b610df0565b005b34801561052b57600080fd5b5061054660048036038101906105419190613f92565b610e04565b6040516105539190614c4f565b60405180910390f35b61057660048036038101906105719190613f3e565b610e74565b005b34801561058457600080fd5b5061058d610fb1565b60405161059a919061471e565b60405180910390f35b3480156105af57600080fd5b506105b861106a565b6040516105c59190614703565b60405180910390f35b3480156105da57600080fd5b506105e3611082565b6040516105f0919061471e565b60405180910390f35b34801561060557600080fd5b50610620600480360381019061061b9190613dec565b6110a6565b60405161062d9190614c4f565b60405180910390f35b34801561064257600080fd5b5061065d60048036038101906106589190613f92565b6110ef565b005b34801561066b57600080fd5b5061068660048036038101906106819190613dec565b61110f565b6040516106939190614c4f565b60405180910390f35b3480156106a857600080fd5b506106b1611160565b005b3480156106bf57600080fd5b506106c86113d0565b005b3480156106d657600080fd5b506106f160048036038101906106ec9190614020565b611405565b6040516106fe9190614703565b60405180910390f35b34801561071357600080fd5b5061071c611470565b604051610729919061484d565b60405180910390f35b34801561073e57600080fd5b50610747611502565b005b34801561075557600080fd5b50610770600480360381019061076b9190614085565b611538565b60405161077d9190614c4f565b60405180910390f35b34801561079257600080fd5b5061079b611569565b6040516107a8919061471e565b60405180910390f35b3480156107bd57600080fd5b506107d860048036038101906107d39190613f92565b611570565b6040516107e59190614703565b60405180910390f35b3480156107fa57600080fd5b5061081560048036038101906108109190613f92565b6115e7565b6040516108229190614703565b60405180910390f35b34801561083757600080fd5b50610852600480360381019061084d9190613ea0565b61160a565b005b34801561086057600080fd5b5061086961174c565b604051610876919061471e565b60405180910390f35b34801561088b57600080fd5b506108a660048036038101906108a19190614020565b611770565b005b3480156108b457600080fd5b506108cf60048036038101906108ca9190613e15565b611791565b6040516108dc9190614c4f565b60405180910390f35b3480156108f157600080fd5b506108fa611818565b604051610907919061471e565b60405180910390f35b34801561091c57600080fd5b5061092561183c565b604051610932919061471e565b60405180910390f35b60007f7965db0b000000000000000000000000000000000000000000000000000000007bffffffffffffffffffffffffffffffffffffffffffffffffffffffff1916827bffffffffffffffffffffffffffffffffffffffffffffffffffffffff191614806109ae57506109ad82611883565b5b9050919050565b6060603680546109c4906150a7565b80601f01602080910402602001604051908101604052809291908181526020018280546109f0906150a7565b8015610a3d5780601f10610a1257610100808354040283529160200191610a3d565b820191906000526020600020905b815481529060010190602001808311610a2057829003601f168201915b5050505050905090565b600080610a526118ed565b9050610a5f8185856118f5565b600191505092915050565b6000603554905090565b600080610a7f6118ed565b9050610a8c858285611ac0565b610a97858585611b4c565b60019150509392505050565b600060fb6000838152602001908152602001600020600101549050919050565b6000801b610ad081611dd0565b610adb308484611b4c565b505050565b610ae982610aa3565b610af281611dd0565b610afc8383611de4565b505050565b60006012905090565b6000610b14611ec5565b905090565b610b216118ed565b73ffffffffffffffffffffffffffffffffffffffff168173ffffffffffffffffffffffffffffffffffffffff1614610b8e576040517f08c379a0000000000000000000000000000000000000000000000000000000008152600401610b8590614c0f565b60405180910390fd5b610b988282611f05565b5050565b7f000000000000000000000000000000000000000000000000000000000000000073ffffffffffffffffffffffffffffffffffffffff163073ffffffffffffffffffffffffffffffffffffffff161415610c2b576040517f08c379a0000000000000000000000000000000000000000000000000000000008152600401610c229061496f565b60405180910390fd5b7f000000000000000000000000000000000000000000000000000000000000000073ffffffffffffffffffffffffffffffffffffffff16610c6a611fe7565b73ffffffffffffffffffffffffffffffffffffffff1614610cc0576040517f08c379a0000000000000000000000000000000000000000000000000000000008152600401610cb790614a0f565b60405180910390fd5b610cc98161203e565b610d4881600067ffffffffffffffff811115610d0e577f4e487b7100000000000000000000000000000000000000000000000000000000600052604160045260246000fd5b6040519080825280601f01601f191660200182016040528015610d405781602001600182028036833780820191505090505b50600061206c565b50565b600080610d566118ed565b9050610d77818585610d688589611791565b610d729190614d18565b6118f5565b600191505092915050565b7f65d7a28e3265b37a6474929f336521b332c1681b933f6cb9f3376673440d862a610dac81611dd0565b610db46121e9565b50565b7f9f2df0fed2c77648de5860a4cc508cd0818c85b8b8a1ab4ceeef8d981c8956a6610de181611dd0565b610deb838361228c565b505050565b610e01610dfb6118ed565b826123ed565b50565b6000806000610e5184609760008873ffffffffffffffffffffffffffffffffffffffff1673ffffffffffffffffffffffffffffffffffffffff1681526020019081526020016000206125c6565b9150915081610e6857610e63856110a6565b610e6a565b805b9250505092915050565b7f000000000000000000000000000000000000000000000000000000000000000073ffffffffffffffffffffffffffffffffffffffff163073ffffffffffffffffffffffffffffffffffffffff161415610f03576040517f08c379a0000000000000000000000000000000000000000000000000000000008152600401610efa9061496f565b60405180910390fd5b7f000000000000000000000000000000000000000000000000000000000000000073ffffffffffffffffffffffffffffffffffffffff16610f42611fe7565b73ffffffffffffffffffffffffffffffffffffffff1614610f98576040517f08c379a0000000000000000000000000000000000000000000000000000000008152600401610f8f90614a0f565b60405180910390fd5b610fa18261203e565b610fad8282600161206c565b5050565b60007f000000000000000000000000000000000000000000000000000000000000000073ffffffffffffffffffffffffffffffffffffffff163073ffffffffffffffffffffffffffffffffffffffff1614611041576040517f08c379a000000000000000000000000000000000000000000000000000000000815260040161103890614a2f565b60405180910390fd5b7f360894a13ba1a3210667c828492db98dca3e2076cc3735a920a3ca505d382bbc60001b905090565b600061012d60009054906101000a900460ff16905090565b7f5fdbd35e8da83ee755d5e62a539e5ed7f47126abede0b8b10f9ea43dc6eed07f81565b6000603360008373ffffffffffffffffffffffffffffffffffffffff1673ffffffffffffffffffffffffffffffffffffffff168152602001908152602001600020549050919050565b611101826110fb6118ed565b83611ac0565b61110b82826123ed565b5050565b600061115961019360008473ffffffffffffffffffffffffffffffffffffffff1673ffffffffffffffffffffffffffffffffffffffff1681526020019081526020016000206126e2565b9050919050565b600061116c60016126f0565b90508015611190576001600060016101000a81548160ff0219169083151502179055505b6112046040518060400160405280600481526020017f4e69636b000000000000000000000000000000000000000000000000000000008152506040518060400160405280600481526020017f4e49434b000000000000000000000000000000000000000000000000000000008152506127e0565b61120c61283d565b61121461288e565b61121c6128df565b611224612930565b6112626040518060400160405280600481526020017f4e69636b00000000000000000000000000000000000000000000000000000000815250612989565b61126a612a1a565b6112776000801b33611de4565b6112a17f5fdbd35e8da83ee755d5e62a539e5ed7f47126abede0b8b10f9ea43dc6eed07f33611de4565b6112cb7f65d7a28e3265b37a6474929f336521b332c1681b933f6cb9f3376673440d862a33611de4565b6112f6306112d7610b01565b600a6112e39190614df2565b62986f706112f19190614f10565b61228c565b61132033611302610b01565b600a61130e9190614df2565b61271061131b9190614f10565b61228c565b61134a7f9f2df0fed2c77648de5860a4cc508cd0818c85b8b8a1ab4ceeef8d981c8956a633611de4565b6113747f189ab7a9244df0848122154315af71fe140f3db0fe014031783b0946b8c9d2e333611de4565b80156113cd5760008060016101000a81548160ff0219169083151502179055507f7f26b83ff96e1f2b6a682f133852f6798a09c465da95921460cefb384740249860016040516113c49190614832565b60405180910390a15b50565b7f65d7a28e3265b37a6474929f336521b332c1681b933f6cb9f3376673440d862a6113fa81611dd0565b611402612a6b565b50565b600060fb600084815260200190815260200160002060000160008373ffffffffffffffffffffffffffffffffffffffff1673ffffffffffffffffffffffffffffffffffffffff16815260200190815260200160002060009054906101000a900460ff16905092915050565b60606037805461147f906150a7565b80601f01602080910402602001604051908101604052809291908181526020018280546114ab906150a7565b80156114f85780601f106114cd576101008083540402835291602001916114f8565b820191906000526020600020905b8154815290600101906020018083116114db57829003601f168201915b5050505050905090565b7f5fdbd35e8da83ee755d5e62a539e5ed7f47126abede0b8b10f9ea43dc6eed07f61152c81611dd0565b611534612b0f565b5050565b60008060006115488460986125c6565b915091508161155e57611559610a6a565b611560565b805b92505050919050565b6000801b81565b60008061157b6118ed565b905060006115898286611791565b9050838110156115ce576040517f08c379a00000000000000000000000000000000000000000000000000000000081526004016115c590614bef565b60405180910390fd5b6115db82868684036118f5565b60019250505092915050565b6000806115f26118ed565b90506115ff818585611b4c565b600191505092915050565b8342111561164d576040517f08c379a0000000000000000000000000000000000000000000000000000000008152600401611644906149af565b60405180910390fd5b60007f6e71edae12b1b97f4d1f60370fef10105fa2faae0126114a169c64845d6126c988888861167c8c612b65565b8960405160200161169296959493929190614739565b60405160208183030381529060405280519060200120905060006116b582612bc4565b905060006116c582878787612bde565b90508973ffffffffffffffffffffffffffffffffffffffff168173ffffffffffffffffffffffffffffffffffffffff1614611735576040517f08c379a000000000000000000000000000000000000000000000000000000000815260040161172c90614aef565b60405180910390fd5b6117408a8a8a6118f5565b50505050505050505050565b7f9f2df0fed2c77648de5860a4cc508cd0818c85b8b8a1ab4ceeef8d981c8956a681565b61177982610aa3565b61178281611dd0565b61178c8383611f05565b505050565b6000603460008473ffffffffffffffffffffffffffffffffffffffff1673ffffffffffffffffffffffffffffffffffffffff16815260200190815260200160002060008373ffffffffffffffffffffffffffffffffffffffff1673ffffffffffffffffffffffffffffffffffffffff16815260200190815260200160002054905092915050565b7f65d7a28e3265b37a6474929f336521b332c1681b933f6cb9f3376673440d862a81565b7f189ab7a9244df0848122154315af71fe140f3db0fe014031783b0946b8c9d2e381565b6000808273ffffffffffffffffffffffffffffffffffffffff163b119050919050565b60007f01ffc9a7000000000000000000000000000000000000000000000000000000007bffffffffffffffffffffffffffffffffffffffffffffffffffffffff1916827bffffffffffffffffffffffffffffffffffffffffffffffffffffffff1916149050919050565b600033905090565b600073ffffffffffffffffffffffffffffffffffffffff168373ffffffffffffffffffffffffffffffffffffffff161415611965576040517f08c379a000000000000000000000000000000000000000000000000000000000815260040161195c90614b8f565b60405180910390fd5b600073ffffffffffffffffffffffffffffffffffffffff168273ffffffffffffffffffffffffffffffffffffffff1614156119d5576040517f08c379a00000000000000000000000000000000000000000000000000000000081526004016119cc9061494f565b60405180910390fd5b80603460008573ffffffffffffffffffffffffffffffffffffffff1673ffffffffffffffffffffffffffffffffffffffff16815260200190815260200160002060008473ffffffffffffffffffffffffffffffffffffffff1673ffffffffffffffffffffffffffffffffffffffff168152602001908152602001600020819055508173ffffffffffffffffffffffffffffffffffffffff168373ffffffffffffffffffffffffffffffffffffffff167f8c5be1e5ebec7d5bd14f71427d1e84f3dd0314c0f7b2291e5b200ac8c7c3b92583604051611ab39190614c4f565b60405180910390a3505050565b6000611acc8484611791565b90507fffffffffffffffffffffffffffffffffffffffffffffffffffffffffffffffff8114611b465781811015611b38576040517f08c379a0000000000000000000000000000000000000000000000000000000008152600401611b2f9061498f565b60405180910390fd5b611b4584848484036118f5565b5b50505050565b600073ffffffffffffffffffffffffffffffffffffffff168373ffffffffffffffffffffffffffffffffffffffff161415611bbc576040517f08c379a0000000000000000000000000000000000000000000000000000000008152600401611bb390614b6f565b60405180910390fd5b600073ffffffffffffffffffffffffffffffffffffffff168273ffffffffffffffffffffffffffffffffffffffff161415611c2c576040517f08c379a0000000000000000000000000000000000000000000000000000000008152600401611c23906148cf565b60405180910390fd5b611c37838383612c09565b6000603360008573ffffffffffffffffffffffffffffffffffffffff1673ffffffffffffffffffffffffffffffffffffffff16815260200190815260200160002054905081811015611cbe576040517f08c379a0000000000000000000000000000000000000000000000000000000008152600401611cb5906149cf565b60405180910390fd5b818103603360008673ffffffffffffffffffffffffffffffffffffffff1673ffffffffffffffffffffffffffffffffffffffff1681526020019081526020016000208190555081603360008573ffffffffffffffffffffffffffffffffffffffff1673ffffffffffffffffffffffffffffffffffffffff1681526020019081526020016000206000828254611d539190614d18565b925050819055508273ffffffffffffffffffffffffffffffffffffffff168473ffffffffffffffffffffffffffffffffffffffff167fddf252ad1be2c89b69c2b068fc378daa952ba7f163c4a11628f55a4df523b3ef84604051611db79190614c4f565b60405180910390a3611dca848484612c61565b50505050565b611de181611ddc6118ed565b612c66565b50565b611dee8282611405565b611ec157600160fb600084815260200190815260200160002060000160008373ffffffffffffffffffffffffffffffffffffffff1673ffffffffffffffffffffffffffffffffffffffff16815260200190815260200160002060006101000a81548160ff021916908315150217905550611e666118ed565b73ffffffffffffffffffffffffffffffffffffffff168173ffffffffffffffffffffffffffffffffffffffff16837f2f8788117e7eff1d82e926ec794901d17c78024a50270940304540a733656f0d60405160405180910390a45b5050565b6000611f007f8b73c3c69bb8fe3d512ecc4cf759cc79239f7b179b0ffacaa9a75d522b39400f611ef3612d03565b611efb612d0e565b612d19565b905090565b611f0f8282611405565b15611fe357600060fb600084815260200190815260200160002060000160008373ffffffffffffffffffffffffffffffffffffffff1673ffffffffffffffffffffffffffffffffffffffff16815260200190815260200160002060006101000a81548160ff021916908315150217905550611f886118ed565b73ffffffffffffffffffffffffffffffffffffffff168173ffffffffffffffffffffffffffffffffffffffff16837ff6391f5c32d9c69d2a47ea670b442974b53935d1edc7fd64eb21e047a839171b60405160405180910390a45b5050565b60006120157f360894a13ba1a3210667c828492db98dca3e2076cc3735a920a3ca505d382bbc60001b612d53565b60000160009054906101000a900473ffffffffffffffffffffffffffffffffffffffff16905090565b7f189ab7a9244df0848122154315af71fe140f3db0fe014031783b0946b8c9d2e361206881611dd0565b5050565b6120987f4910fdfa16fed3260ed0e7147f7cc6da11a60208b5b9406d12a635614ffd914360001b612d5d565b60000160009054906101000a900460ff16156120bc576120b783612d67565b6121e4565b8273ffffffffffffffffffffffffffffffffffffffff166352d1902d6040518163ffffffff1660e01b815260040160206040518083038186803b15801561210257600080fd5b505afa92505050801561213357506040513d601f19601f820116820180604052508101906121309190613ff7565b60015b612172576040517f08c379a000000000000000000000000000000000000000000000000000000000815260040161216990614acf565b60405180910390fd5b7f360894a13ba1a3210667c828492db98dca3e2076cc3735a920a3ca505d382bbc60001b81146121d7576040517f08c379a00000000000000000000000000000000000000000000000000000000081526004016121ce90614a6f565b60405180910390fd5b506121e3838383612e20565b5b505050565b6121f161106a565b612230576040517f08c379a0000000000000000000000000000000000000000000000000000000008152600401612227906148ef565b60405180910390fd5b600061012d60006101000a81548160ff0219169083151502179055507f5db9ee0a495bf2e6ff9c91a7834c1ba4fdd244a5e8aa4e537bd38aeae4b073aa6122756118ed565b60405161228291906146e8565b60405180910390a1565b600073ffffffffffffffffffffffffffffffffffffffff168273ffffffffffffffffffffffffffffffffffffffff1614156122fc576040517f08c379a00000000000000000000000000000000000000000000000000000000081526004016122f390614c2f565b60405180910390fd5b61230860008383612c09565b806035600082825461231a9190614d18565b9250508190555080603360008473ffffffffffffffffffffffffffffffffffffffff1673ffffffffffffffffffffffffffffffffffffffff16815260200190815260200160002060008282546123709190614d18565b925050819055508173ffffffffffffffffffffffffffffffffffffffff16600073ffffffffffffffffffffffffffffffffffffffff167fddf252ad1be2c89b69c2b068fc378daa952ba7f163c4a11628f55a4df523b3ef836040516123d59190614c4f565b60405180910390a36123e960008383612c61565b5050565b600073ffffffffffffffffffffffffffffffffffffffff168273ffffffffffffffffffffffffffffffffffffffff16141561245d576040517f08c379a000000000000000000000000000000000000000000000000000000000815260040161245490614b2f565b60405180910390fd5b61246982600083612c09565b6000603360008473ffffffffffffffffffffffffffffffffffffffff1673ffffffffffffffffffffffffffffffffffffffff168152602001908152602001600020549050818110156124f0576040517f08c379a00000000000000000000000000000000000000000000000000000000081526004016124e79061490f565b60405180910390fd5b818103603360008573ffffffffffffffffffffffffffffffffffffffff1673ffffffffffffffffffffffffffffffffffffffff1681526020019081526020016000208190555081603560008282546125489190614f6a565b92505081905550600073ffffffffffffffffffffffffffffffffffffffff168373ffffffffffffffffffffffffffffffffffffffff167fddf252ad1be2c89b69c2b068fc378daa952ba7f163c4a11628f55a4df523b3ef846040516125ad9190614c4f565b60405180910390a36125c183600084612c61565b505050565b6000806000841161260c576040517f08c379a000000000000000000000000000000000000000000000000000000000815260040161260390614bcf565b60405180910390fd5b612614612e4c565b841115612656576040517f08c379a000000000000000000000000000000000000000000000000000000000815260040161264d9061488f565b60405180910390fd5b600061266e8585600001612e5d90919063ffffffff16565b9050836000018054905081141561268c5760008092509250506126db565b60018460010182815481106126ca577f4e487b7100000000000000000000000000000000000000000000000000000000600052603260045260246000fd5b906000526020600020015492509250505b9250929050565b600081600001549050919050565b60008060019054906101000a900460ff16156127675760018260ff1614801561271f575061271d30611860565b155b61275e576040517f08c379a000000000000000000000000000000000000000000000000000000000815260040161275590614a8f565b60405180910390fd5b600090506127db565b8160ff1660008054906101000a900460ff1660ff16106127bc576040517f08c379a00000000000000000000000000000000000000000000000000000000081526004016127b390614a8f565b60405180910390fd5b816000806101000a81548160ff021916908360ff160217905550600190505b919050565b600060019054906101000a900460ff1661282f576040517f08c379a000000000000000000000000000000000000000000000000000000000815260040161282690614baf565b60405180910390fd5b6128398282612f83565b5050565b600060019054906101000a900460ff1661288c576040517f08c379a000000000000000000000000000000000000000000000000000000000815260040161288390614baf565b60405180910390fd5b565b600060019054906101000a900460ff166128dd576040517f08c379a00000000000000000000000000000000000000000000000000000000081526004016128d490614baf565b60405180910390fd5b565b600060019054906101000a900460ff1661292e576040517f08c379a000000000000000000000000000000000000000000000000000000000815260040161292590614baf565b60405180910390fd5b565b600060019054906101000a900460ff1661297f576040517f08c379a000000000000000000000000000000000000000000000000000000000815260040161297690614baf565b60405180910390fd5b612987613004565b565b600060019054906101000a900460ff166129d8576040517f08c379a00000000000000000000000000000000000000000000000000000000081526004016129cf90614baf565b60405180910390fd5b612a17816040518060400160405280600181526020017f3100000000000000000000000000000000000000000000000000000000000000815250613071565b50565b600060019054906101000a900460ff16612a69576040517f08c379a0000000000000000000000000000000000000000000000000000000008152600401612a6090614baf565b60405180910390fd5b565b612a7361106a565b15612ab3576040517f08c379a0000000000000000000000000000000000000000000000000000000008152600401612aaa90614a4f565b60405180910390fd5b600161012d60006101000a81548160ff0219169083151502179055507f62e78cea01bee320cd4e420270b5ea74000d11b0c9f74754ebdbfc544b05a258612af86118ed565b604051612b0591906146e8565b60405180910390a1565b6000612b1b609a6130ee565b6000612b25612e4c565b90507f8030e83b04d87bef53480e26263266d6ca66863aa8506aca6f2559d18aa1cb6781604051612b569190614c4f565b60405180910390a18091505090565b60008061019360008473ffffffffffffffffffffffffffffffffffffffff1673ffffffffffffffffffffffffffffffffffffffff1681526020019081526020016000209050612bb3816126e2565b9150612bbe816130ee565b50919050565b6000612bd7612bd1611ec5565b83613104565b9050919050565b6000806000612bef87878787613137565b91509150612bfc81613244565b8192505050949350505050565b612c1161106a565b15612c51576040517f08c379a0000000000000000000000000000000000000000000000000000000008152600401612c4890614a4f565b60405180910390fd5b612c5c838383613595565b505050565b505050565b612c708282611405565b612cff57612c958173ffffffffffffffffffffffffffffffffffffffff16601461364f565b612ca38360001c602061364f565b604051602001612cb49291906146ae565b6040516020818303038152906040526040517f08c379a0000000000000000000000000000000000000000000000000000000008152600401612cf6919061484d565b60405180910390fd5b5050565b600061015f54905090565b600061016054905090565b60008383834630604051602001612d3495949392919061479a565b6040516020818303038152906040528051906020012090509392505050565b6000819050919050565b6000819050919050565b612d7081611860565b612daf576040517f08c379a0000000000000000000000000000000000000000000000000000000008152600401612da690614b0f565b60405180910390fd5b80612ddc7f360894a13ba1a3210667c828492db98dca3e2076cc3735a920a3ca505d382bbc60001b612d53565b60000160006101000a81548173ffffffffffffffffffffffffffffffffffffffff021916908373ffffffffffffffffffffffffffffffffffffffff16021790555050565b612e2983613949565b600082511180612e365750805b15612e4757612e458383613998565b505b505050565b6000612e58609a6126e2565b905090565b60008083805490501415612e745760009050612f7d565b600080848054905090505b80821015612efe576000612e938383613a7c565b905084868281548110612ecf577f4e487b7100000000000000000000000000000000000000000000000000000000600052603260045260246000fd5b90600052602060002001541115612ee857809150612ef8565b600181612ef59190614d18565b92505b50612e7f565b600082118015612f5c57508385600184612f189190614f6a565b81548110612f4f577f4e487b7100000000000000000000000000000000000000000000000000000000600052603260045260246000fd5b9060005260206000200154145b15612f7757600182612f6e9190614f6a565b92505050612f7d565b81925050505b92915050565b600060019054906101000a900460ff16612fd2576040517f08c379a0000000000000000000000000000000000000000000000000000000008152600401612fc990614baf565b60405180910390fd5b8160369080519060200190612fe8929190613c63565b508060379080519060200190612fff929190613c63565b505050565b600060019054906101000a900460ff16613053576040517f08c379a000000000000000000000000000000000000000000000000000000000815260040161304a90614baf565b60405180910390fd5b600061012d60006101000a81548160ff021916908315150217905550565b600060019054906101000a900460ff166130c0576040517f08c379a00000000000000000000000000000000000000000000000000000000081526004016130b790614baf565b60405180910390fd5b6000828051906020012090506000828051906020012090508161015f81905550806101608190555050505050565b6001816000016000828254019250508190555050565b60008282604051602001613119929190614677565b60405160208183030381529060405280519060200120905092915050565b6000807f7fffffffffffffffffffffffffffffff5d576e7357a4501ddfe92f46681b20a08360001c111561317257600060039150915061323b565b601b8560ff161415801561318a5750601c8560ff1614155b1561319c57600060049150915061323b565b6000600187878787604051600081526020016040526040516131c194939291906147ed565b6020604051602081039080840390855afa1580156131e3573d6000803e3d6000fd5b505050602060405103519050600073ffffffffffffffffffffffffffffffffffffffff168173ffffffffffffffffffffffffffffffffffffffff1614156132325760006001925092505061323b565b80600092509250505b94509492505050565b6000600481111561327e577f4e487b7100000000000000000000000000000000000000000000000000000000600052602160045260246000fd5b8160048111156132b7577f4e487b7100000000000000000000000000000000000000000000000000000000600052602160045260246000fd5b14156132c257613592565b600160048111156132fc577f4e487b7100000000000000000000000000000000000000000000000000000000600052602160045260246000fd5b816004811115613335577f4e487b7100000000000000000000000000000000000000000000000000000000600052602160045260246000fd5b1415613376576040517f08c379a000000000000000000000000000000000000000000000000000000000815260040161336d9061486f565b60405180910390fd5b600260048111156133b0577f4e487b7100000000000000000000000000000000000000000000000000000000600052602160045260246000fd5b8160048111156133e9577f4e487b7100000000000000000000000000000000000000000000000000000000600052602160045260246000fd5b141561342a576040517f08c379a00000000000000000000000000000000000000000000000000000000081526004016134219061492f565b60405180910390fd5b60036004811115613464577f4e487b7100000000000000000000000000000000000000000000000000000000600052602160045260246000fd5b81600481111561349d577f4e487b7100000000000000000000000000000000000000000000000000000000600052602160045260246000fd5b14156134de576040517f08c379a00000000000000000000000000000000000000000000000000000000081526004016134d5906149ef565b60405180910390fd5b600480811115613517577f4e487b7100000000000000000000000000000000000000000000000000000000600052602160045260246000fd5b816004811115613550577f4e487b7100000000000000000000000000000000000000000000000000000000600052602160045260246000fd5b1415613591576040517f08c379a000000000000000000000000000000000000000000000000000000000815260040161358890614aaf565b60405180910390fd5b5b50565b6135a0838383613aa2565b600073ffffffffffffffffffffffffffffffffffffffff168373ffffffffffffffffffffffffffffffffffffffff1614156135eb576135de82613aa7565b6135e6613afa565b61364a565b600073ffffffffffffffffffffffffffffffffffffffff168273ffffffffffffffffffffffffffffffffffffffff1614156136365761362983613aa7565b613631613afa565b613649565b61363f83613aa7565b61364882613aa7565b5b5b505050565b6060600060028360026136629190614f10565b61366c9190614d18565b67ffffffffffffffff8111156136ab577f4e487b7100000000000000000000000000000000000000000000000000000000600052604160045260246000fd5b6040519080825280601f01601f1916602001820160405280156136dd5781602001600182028036833780820191505090505b5090507f30000000000000000000000000000000000000000000000000000000000000008160008151811061373b577f4e487b7100000000000000000000000000000000000000000000000000000000600052603260045260246000fd5b60200101907effffffffffffffffffffffffffffffffffffffffffffffffffffffffffffff1916908160001a9053507f7800000000000000000000000000000000000000000000000000000000000000816001815181106137c5577f4e487b7100000000000000000000000000000000000000000000000000000000600052603260045260246000fd5b60200101907effffffffffffffffffffffffffffffffffffffffffffffffffffffffffffff1916908160001a905350600060018460026138059190614f10565b61380f9190614d18565b90505b60018111156138fb577f3031323334353637383961626364656600000000000000000000000000000000600f861660108110613877577f4e487b7100000000000000000000000000000000000000000000000000000000600052603260045260246000fd5b1a60f81b8282815181106138b4577f4e487b7100000000000000000000000000000000000000000000000000000000600052603260045260246000fd5b60200101907effffffffffffffffffffffffffffffffffffffffffffffffffffffffffffff1916908160001a905350600485901c9450806138f49061507d565b9050613812565b506000841461393f576040517f08c379a0000000000000000000000000000000000000000000000000000000008152600401613936906148af565b60405180910390fd5b8091505092915050565b61395281612d67565b8073ffffffffffffffffffffffffffffffffffffffff167fbc7cd75a20ee27fd9adebab32041f755214dbc6bffa90cc0225b39da2e5c2d3b60405160405180910390a250565b60606139a383611860565b6139e2576040517f08c379a00000000000000000000000000000000000000000000000000000000081526004016139d990614b4f565b60405180910390fd5b6000808473ffffffffffffffffffffffffffffffffffffffff1684604051613a0a9190614660565b600060405180830381855af49150503d8060008114613a45576040519150601f19603f3d011682016040523d82523d6000602084013e613a4a565b606091505b5091509150613a728282604051806060016040528060278152602001615acc60279139613b0e565b9250505092915050565b60006002828418613a8d9190614d6e565b828416613a9a9190614d18565b905092915050565b505050565b613af7609760008373ffffffffffffffffffffffffffffffffffffffff1673ffffffffffffffffffffffffffffffffffffffff168152602001908152602001600020613af2836110a6565b613b75565b50565b613b0c6098613b07610a6a565b613b75565b565b60608315613b1e57829050613b6e565b600083511115613b315782518084602001fd5b816040517f08c379a0000000000000000000000000000000000000000000000000000000008152600401613b65919061484d565b60405180910390fd5b9392505050565b6000613b7f612e4c565b905080613b8e84600001613bf0565b1015613beb5782600001819080600181540180825580915050600190039060005260206000200160009091909190915055826001018290806001815401808255809150506001900390600052602060002001600090919091909150555b505050565b60008082805490501415613c075760009050613c5e565b8160018380549050613c199190614f6a565b81548110613c50577f4e487b7100000000000000000000000000000000000000000000000000000000600052603260045260246000fd5b906000526020600020015490505b919050565b828054613c6f906150a7565b90600052602060002090601f016020900481019282613c915760008555613cd8565b82601f10613caa57805160ff1916838001178555613cd8565b82800160010185558215613cd8579182015b82811115613cd7578251825591602001919060010190613cbc565b5b509050613ce59190613ce9565b5090565b5b80821115613d02576000816000905550600101613cea565b5090565b6000613d19613d1484614caa565b614c85565b905082815260208101848484011115613d3157600080fd5b613d3c84828561503b565b509392505050565b600081359050613d5381615a58565b92915050565b600081359050613d6881615a6f565b92915050565b600081519050613d7d81615a6f565b92915050565b600081359050613d9281615a86565b92915050565b600082601f830112613da957600080fd5b8135613db9848260208601613d06565b91505092915050565b600081359050613dd181615a9d565b92915050565b600081359050613de681615ab4565b92915050565b600060208284031215613dfe57600080fd5b6000613e0c84828501613d44565b91505092915050565b60008060408385031215613e2857600080fd5b6000613e3685828601613d44565b9250506020613e4785828601613d44565b9150509250929050565b600080600060608486031215613e6657600080fd5b6000613e7486828701613d44565b9350506020613e8586828701613d44565b9250506040613e9686828701613dc2565b9150509250925092565b600080600080600080600060e0888a031215613ebb57600080fd5b6000613ec98a828b01613d44565b9750506020613eda8a828b01613d44565b9650506040613eeb8a828b01613dc2565b9550506060613efc8a828b01613dc2565b9450506080613f0d8a828b01613dd7565b93505060a0613f1e8a828b01613d59565b92505060c0613f2f8a828b01613d59565b91505092959891949750929550565b60008060408385031215613f5157600080fd5b6000613f5f85828601613d44565b925050602083013567ffffffffffffffff811115613f7c57600080fd5b613f8885828601613d98565b9150509250929050565b60008060408385031215613fa557600080fd5b6000613fb385828601613d44565b9250506020613fc485828601613dc2565b9150509250929050565b600060208284031215613fe057600080fd5b6000613fee84828501613d59565b91505092915050565b60006020828403121561400957600080fd5b600061401784828501613d6e565b91505092915050565b6000806040838503121561403357600080fd5b600061404185828601613d59565b925050602061405285828601613d44565b9150509250929050565b60006020828403121561406e57600080fd5b600061407c84828501613d83565b91505092915050565b60006020828403121561409757600080fd5b60006140a584828501613dc2565b91505092915050565b6140b781614f9e565b82525050565b6140c681614fb0565b82525050565b6140d581614fbc565b82525050565b6140ec6140e782614fbc565b61510a565b82525050565b60006140fd82614cdb565b6141078185614cf1565b935061411781856020860161504a565b80840191505092915050565b61412c81615029565b82525050565b600061413d82614ce6565b6141478185614cfc565b935061415781856020860161504a565b614160816151d0565b840191505092915050565b600061417682614ce6565b6141808185614d0d565b935061419081856020860161504a565b80840191505092915050565b60006141a9601883614cfc565b91506141b4826151ee565b602082019050919050565b60006141cc601d83614cfc565b91506141d782615217565b602082019050919050565b60006141ef602083614cfc565b91506141fa82615240565b602082019050919050565b6000614212602383614cfc565b915061421d82615269565b604082019050919050565b6000614235601483614cfc565b9150614240826152b8565b602082019050919050565b6000614258602283614cfc565b9150614263826152e1565b604082019050919050565b600061427b601f83614cfc565b915061428682615330565b602082019050919050565b600061429e602283614cfc565b91506142a982615359565b604082019050919050565b60006142c1600283614d0d565b91506142cc826153a8565b600282019050919050565b60006142e4602c83614cfc565b91506142ef826153d1565b604082019050919050565b6000614307601d83614cfc565b915061431282615420565b602082019050919050565b600061432a601d83614cfc565b915061433582615449565b602082019050919050565b600061434d602683614cfc565b915061435882615472565b604082019050919050565b6000614370602283614cfc565b915061437b826154c1565b604082019050919050565b6000614393602c83614cfc565b915061439e82615510565b604082019050919050565b60006143b6603883614cfc565b91506143c18261555f565b604082019050919050565b60006143d9601083614cfc565b91506143e4826155ae565b602082019050919050565b60006143fc602983614cfc565b9150614407826155d7565b604082019050919050565b600061441f602e83614cfc565b915061442a82615626565b604082019050919050565b6000614442602283614cfc565b915061444d82615675565b604082019050919050565b6000614465602e83614cfc565b9150614470826156c4565b604082019050919050565b6000614488601e83614cfc565b915061449382615713565b602082019050919050565b60006144ab602d83614cfc565b91506144b68261573c565b604082019050919050565b60006144ce602183614cfc565b91506144d98261578b565b604082019050919050565b60006144f1602683614cfc565b91506144fc826157da565b604082019050919050565b6000614514602583614cfc565b915061451f82615829565b604082019050919050565b6000614537602483614cfc565b915061454282615878565b604082019050919050565b600061455a602b83614cfc565b9150614565826158c7565b604082019050919050565b600061457d601683614cfc565b915061458882615916565b602082019050919050565b60006145a0601783614d0d565b91506145ab8261593f565b601782019050919050565b60006145c3602583614cfc565b91506145ce82615968565b604082019050919050565b60006145e6601183614d0d565b91506145f1826159b7565b601182019050919050565b6000614609602f83614cfc565b9150614614826159e0565b604082019050919050565b600061462c601f83614cfc565b915061463782615a2f565b602082019050919050565b61464b81615012565b82525050565b61465a8161501c565b82525050565b600061466c82846140f2565b915081905092915050565b6000614682826142b4565b915061468e82856140db565b60208201915061469e82846140db565b6020820191508190509392505050565b60006146b982614593565b91506146c5828561416b565b91506146d0826145d9565b91506146dc828461416b565b91508190509392505050565b60006020820190506146fd60008301846140ae565b92915050565b600060208201905061471860008301846140bd565b92915050565b600060208201905061473360008301846140cc565b92915050565b600060c08201905061474e60008301896140cc565b61475b60208301886140ae565b61476860408301876140ae565b6147756060830186614642565b6147826080830185614642565b61478f60a0830184614642565b979650505050505050565b600060a0820190506147af60008301886140cc565b6147bc60208301876140cc565b6147c960408301866140cc565b6147d66060830185614642565b6147e360808301846140ae565b9695505050505050565b600060808201905061480260008301876140cc565b61480f6020830186614651565b61481c60408301856140cc565b61482960608301846140cc565b95945050505050565b60006020820190506148476000830184614123565b92915050565b600060208201905081810360008301526148678184614132565b905092915050565b600060208201905081810360008301526148888161419c565b9050919050565b600060208201905081810360008301526148a8816141bf565b9050919050565b600060208201905081810360008301526148c8816141e2565b9050919050565b600060208201905081810360008301526148e881614205565b9050919050565b6000602082019050818103600083015261490881614228565b9050919050565b600060208201905081810360008301526149288161424b565b9050919050565b600060208201905081810360008301526149488161426e565b9050919050565b6000602082019050818103600083015261496881614291565b9050919050565b60006020820190508181036000830152614988816142d7565b9050919050565b600060208201905081810360008301526149a8816142fa565b9050919050565b600060208201905081810360008301526149c88161431d565b9050919050565b600060208201905081810360008301526149e881614340565b9050919050565b60006020820190508181036000830152614a0881614363565b9050919050565b60006020820190508181036000830152614a2881614386565b9050919050565b60006020820190508181036000830152614a48816143a9565b9050919050565b60006020820190508181036000830152614a68816143cc565b9050919050565b60006020820190508181036000830152614a88816143ef565b9050919050565b60006020820190508181036000830152614aa881614412565b9050919050565b60006020820190508181036000830152614ac881614435565b9050919050565b60006020820190508181036000830152614ae881614458565b9050919050565b60006020820190508181036000830152614b088161447b565b9050919050565b60006020820190508181036000830152614b288161449e565b9050919050565b60006020820190508181036000830152614b48816144c1565b9050919050565b60006020820190508181036000830152614b68816144e4565b9050919050565b60006020820190508181036000830152614b8881614507565b9050919050565b60006020820190508181036000830152614ba88161452a565b9050919050565b60006020820190508181036000830152614bc88161454d565b9050919050565b60006020820190508181036000830152614be881614570565b9050919050565b60006020820190508181036000830152614c08816145b6565b9050919050565b60006020820190508181036000830152614c28816145fc565b9050919050565b60006020820190508181036000830152614c488161461f565b9050919050565b6000602082019050614c646000830184614642565b92915050565b6000602082019050614c7f6000830184614651565b92915050565b6000614c8f614ca0565b9050614c9b82826150d9565b919050565b6000604051905090565b600067ffffffffffffffff821115614cc557614cc46151a1565b5b614cce826151d0565b9050602081019050919050565b600081519050919050565b600081519050919050565b600081905092915050565b600082825260208201905092915050565b600081905092915050565b6000614d2382615012565b9150614d2e83615012565b9250827fffffffffffffffffffffffffffffffffffffffffffffffffffffffffffffffff03821115614d6357614d62615114565b5b828201905092915050565b6000614d7982615012565b9150614d8483615012565b925082614d9457614d93615143565b5b828204905092915050565b6000808291508390505b6001851115614de957808604811115614dc557614dc4615114565b5b6001851615614dd45780820291505b8081029050614de2856151e1565b9450614da9565b94509492505050565b6000614dfd82615012565b9150614e088361501c565b9250614e357fffffffffffffffffffffffffffffffffffffffffffffffffffffffffffffffff8484614e3d565b905092915050565b600082614e4d5760019050614f09565b81614e5b5760009050614f09565b8160018114614e715760028114614e7b57614eaa565b6001915050614f09565b60ff841115614e8d57614e8c615114565b5b8360020a915084821115614ea457614ea3615114565b5b50614f09565b5060208310610133831016604e8410600b8410161715614edf5782820a905083811115614eda57614ed9615114565b5b614f09565b614eec8484846001614d9f565b92509050818404811115614f0357614f02615114565b5b81810290505b9392505050565b6000614f1b82615012565b9150614f2683615012565b9250817fffffffffffffffffffffffffffffffffffffffffffffffffffffffffffffffff0483118215151615614f5f57614f5e615114565b5b828202905092915050565b6000614f7582615012565b9150614f8083615012565b925082821015614f9357614f92615114565b5b828203905092915050565b6000614fa982614ff2565b9050919050565b60008115159050919050565b6000819050919050565b60007fffffffff0000000000000000000000000000000000000000000000000000000082169050919050565b600073ffffffffffffffffffffffffffffffffffffffff82169050919050565b6000819050919050565b600060ff82169050919050565b60006150348261501c565b9050919050565b82818337600083830152505050565b60005b8381101561506857808201518184015260208101905061504d565b83811115615077576000848401525b50505050565b600061508882615012565b9150600082141561509c5761509b615114565b5b600182039050919050565b600060028204905060018216806150bf57607f821691505b602082108114156150d3576150d2615172565b5b50919050565b6150e2826151d0565b810181811067ffffffffffffffff82111715615101576151006151a1565b5b80604052505050565b6000819050919050565b7f4e487b7100000000000000000000000000000000000000000000000000000000600052601160045260246000fd5b7f4e487b7100000000000000000000000000000000000000000000000000000000600052601260045260246000fd5b7f4e487b7100000000000000000000000000000000000000000000000000000000600052602260045260246000fd5b7f4e487b7100000000000000000000000000000000000000000000000000000000600052604160045260246000fd5b6000601f19601f8301169050919050565b60008160011c9050919050565b7f45434453413a20696e76616c6964207369676e61747572650000000000000000600082015250565b7f4552433230536e617073686f743a206e6f6e6578697374656e74206964000000600082015250565b7f537472696e67733a20686578206c656e67746820696e73756666696369656e74600082015250565b7f45524332303a207472616e7366657220746f20746865207a65726f206164647260008201527f6573730000000000000000000000000000000000000000000000000000000000602082015250565b7f5061757361626c653a206e6f7420706175736564000000000000000000000000600082015250565b7f45524332303a206275726e20616d6f756e7420657863656564732062616c616e60008201527f6365000000000000000000000000000000000000000000000000000000000000602082015250565b7f45434453413a20696e76616c6964207369676e6174757265206c656e67746800600082015250565b7f45524332303a20617070726f766520746f20746865207a65726f20616464726560008201527f7373000000000000000000000000000000000000000000000000000000000000602082015250565b7f1901000000000000000000000000000000000000000000000000000000000000600082015250565b7f46756e6374696f6e206d7573742062652063616c6c6564207468726f7567682060008201527f64656c656761746563616c6c0000000000000000000000000000000000000000602082015250565b7f45524332303a20696e73756666696369656e7420616c6c6f77616e6365000000600082015250565b7f45524332305065726d69743a206578706972656420646561646c696e65000000600082015250565b7f45524332303a207472616e7366657220616d6f756e742065786365656473206260008201527f616c616e63650000000000000000000000000000000000000000000000000000602082015250565b7f45434453413a20696e76616c6964207369676e6174757265202773272076616c60008201527f7565000000000000000000000000000000000000000000000000000000000000602082015250565b7f46756e6374696f6e206d7573742062652063616c6c6564207468726f7567682060008201527f6163746976652070726f78790000000000000000000000000000000000000000602082015250565b7f555550535570677261646561626c653a206d757374206e6f742062652063616c60008201527f6c6564207468726f7567682064656c656761746563616c6c0000000000000000602082015250565b7f5061757361626c653a2070617573656400000000000000000000000000000000600082015250565b7f45524331393637557067726164653a20756e737570706f727465642070726f7860008201527f6961626c65555549440000000000000000000000000000000000000000000000602082015250565b7f496e697469616c697a61626c653a20636f6e747261637420697320616c72656160008201527f647920696e697469616c697a6564000000000000000000000000000000000000602082015250565b7f45434453413a20696e76616c6964207369676e6174757265202776272076616c60008201527f7565000000000000000000000000000000000000000000000000000000000000602082015250565b7f45524331393637557067726164653a206e657720696d706c656d656e7461746960008201527f6f6e206973206e6f742055555053000000000000000000000000000000000000602082015250565b7f45524332305065726d69743a20696e76616c6964207369676e61747572650000600082015250565b7f455243313936373a206e657720696d706c656d656e746174696f6e206973206e60008201527f6f74206120636f6e747261637400000000000000000000000000000000000000602082015250565b7f45524332303a206275726e2066726f6d20746865207a65726f2061646472657360008201527f7300000000000000000000000000000000000000000000000000000000000000602082015250565b7f416464726573733a2064656c65676174652063616c6c20746f206e6f6e2d636f60008201527f6e74726163740000000000000000000000000000000000000000000000000000602082015250565b7f45524332303a207472616e736665722066726f6d20746865207a65726f20616460008201527f6472657373000000000000000000000000000000000000000000000000000000602082015250565b7f45524332303a20617070726f76652066726f6d20746865207a65726f2061646460008201527f7265737300000000000000000000000000000000000000000000000000000000602082015250565b7f496e697469616c697a61626c653a20636f6e7472616374206973206e6f74206960008201527f6e697469616c697a696e67000000000000000000000000000000000000000000602082015250565b7f4552433230536e617073686f743a206964206973203000000000000000000000600082015250565b7f416363657373436f6e74726f6c3a206163636f756e7420000000000000000000600082015250565b7f45524332303a2064656372656173656420616c6c6f77616e63652062656c6f7760008201527f207a65726f000000000000000000000000000000000000000000000000000000602082015250565b7f206973206d697373696e6720726f6c6520000000000000000000000000000000600082015250565b7f416363657373436f6e74726f6c3a2063616e206f6e6c792072656e6f756e636560008201527f20726f6c657320666f722073656c660000000000000000000000000000000000602082015250565b7f45524332303a206d696e7420746f20746865207a65726f206164647265737300600082015250565b615a6181614f9e565b8114615a6c57600080fd5b50565b615a7881614fbc565b8114615a8357600080fd5b50565b615a8f81614fc6565b8114615a9a57600080fd5b50565b615aa681615012565b8114615ab157600080fd5b50565b615abd8161501c565b8114615ac857600080fd5b5056fe416464726573733a206c6f772d6c6576656c2064656c65676174652063616c6c206661696c6564a2646970667358221220d3397ce8c2ac5bc5f308d3904bb8e97a3ad66b848eece41eb86637628660b61364736f6c63430008040033",
  "linkReferences": {},
  "deployedLinkReferences": {}
}