{
  "_format": "hh-sol-artifact-1",
  "contractName": "StakingToken",
  "sourceName": "contracts/StakingToken.sol",
  "abi": [
    {
      "inputs": [],
      "stateMutability": "nonpayable",
      "type": "constructor"
    },
    {
      "anonymous": false,
      "inputs": [
        {
          "indexed": false,
          "internalType": "address",
          "name": "previousAdmin",
          "type": "address"
        },
        {
          "indexed": false,
          "internalType": "address",
          "name": "newAdmin",
          "type": "address"
        }
      ],
      "name": "AdminChanged",
      "type": "event"
    },
    {
      "anonymous": false,
      "inputs": [
        {
          "indexed": true,
          "internalType": "address",
          "name": "owner",
          "type": "address"
        },
        {
          "indexed": true,
          "internalType": "address",
          "name": "spender",
          "type": "address"
        },
        {
          "indexed": false,
          "internalType": "uint256",
          "name": "value",
          "type": "uint256"
        }
      ],
      "name": "Approval",
      "type": "event"
    },
    {
      "anonymous": false,
      "inputs": [
        {
          "indexed": true,
          "internalType": "address",
          "name": "beacon",
          "type": "address"
        }
      ],
      "name": "BeaconUpgraded",
      "type": "event"
    },
    {
      "anonymous": false,
      "inputs": [
        {
          "indexed": false,
          "internalType": "uint8",
          "name": "version",
          "type": "uint8"
        }
      ],
      "name": "Initialized",
      "type": "event"
    },
    {
      "anonymous": false,
      "inputs": [
        {
          "indexed": false,
          "internalType": "address",
          "name": "account",
          "type": "address"
        }
      ],
      "name": "Paused",
      "type": "event"
    },
    {
      "anonymous": false,
      "inputs": [
        {
          "indexed": true,
          "internalType": "bytes32",
          "name": "role",
          "type": "bytes32"
        },
        {
          "indexed": true,
          "internalType": "bytes32",
          "name": "previousAdminRole",
          "type": "bytes32"
        },
        {
          "indexed": true,
          "internalType": "bytes32",
          "name": "newAdminRole",
          "type": "bytes32"
        }
      ],
      "name": "RoleAdminChanged",
      "type": "event"
    },
    {
      "anonymous": false,
      "inputs": [
        {
          "indexed": true,
          "internalType": "bytes32",
          "name": "role",
          "type": "bytes32"
        },
        {
          "indexed": true,
          "internalType": "address",
          "name": "account",
          "type": "address"
        },
        {
          "indexed": true,
          "internalType": "address",
          "name": "sender",
          "type": "address"
        }
      ],
      "name": "RoleGranted",
      "type": "event"
    },
    {
      "anonymous": false,
      "inputs": [
        {
          "indexed": true,
          "internalType": "bytes32",
          "name": "role",
          "type": "bytes32"
        },
        {
          "indexed": true,
          "internalType": "address",
          "name": "account",
          "type": "address"
        },
        {
          "indexed": true,
          "internalType": "address",
          "name": "sender",
          "type": "address"
        }
      ],
      "name": "RoleRevoked",
      "type": "event"
    },
    {
      "anonymous": false,
      "inputs": [
        {
          "indexed": false,
          "internalType": "uint256",
          "name": "id",
          "type": "uint256"
        }
      ],
      "name": "Snapshot",
      "type": "event"
    },
    {
      "anonymous": false,
      "inputs": [
        {
          "indexed": true,
          "internalType": "address",
          "name": "from",
          "type": "address"
        },
        {
          "indexed": true,
          "internalType": "address",
          "name": "to",
          "type": "address"
        },
        {
          "indexed": false,
          "internalType": "uint256",
          "name": "value",
          "type": "uint256"
        }
      ],
      "name": "Transfer",
      "type": "event"
    },
    {
      "anonymous": false,
      "inputs": [
        {
          "indexed": false,
          "internalType": "address",
          "name": "account",
          "type": "address"
        }
      ],
      "name": "Unpaused",
      "type": "event"
    },
    {
      "anonymous": false,
      "inputs": [
        {
          "indexed": true,
          "internalType": "address",
          "name": "implementation",
          "type": "address"
        }
      ],
      "name": "Upgraded",
      "type": "event"
    },
    {
      "inputs": [],
      "name": "DEFAULT_ADMIN_ROLE",
      "outputs": [
        {
          "internalType": "bytes32",
          "name": "",
          "type": "bytes32"
        }
      ],
      "stateMutability": "view",
      "type": "function"
    },
    {
      "inputs": [],
      "name": "DOMAIN_SEPARATOR",
      "outputs": [
        {
          "internalType": "bytes32",
          "name": "",
          "type": "bytes32"
        }
      ],
      "stateMutability": "view",
      "type": "function"
    },
    {
      "inputs": [],
      "name": "MINTER_ROLE",
      "outputs": [
        {
          "internalType": "bytes32",
          "name": "",
          "type": "bytes32"
        }
      ],
      "stateMutability": "view",
      "type": "function"
    },
    {
      "inputs": [],
      "name": "PAUSER_ROLE",
      "outputs": [
        {
          "internalType": "bytes32",
          "name": "",
          "type": "bytes32"
        }
      ],
      "stateMutability": "view",
      "type": "function"
    },
    {
      "inputs": [],
      "name": "SNAPSHOT_ROLE",
      "outputs": [
        {
          "internalType": "bytes32",
          "name": "",
          "type": "bytes32"
        }
      ],
      "stateMutability": "view",
      "type": "function"
    },
    {
      "inputs": [],
      "name": "UPGRADER_ROLE",
      "outputs": [
        {
          "internalType": "bytes32",
          "name": "",
          "type": "bytes32"
        }
      ],
      "stateMutability": "view",
      "type": "function"
    },
    {
      "inputs": [
        {
          "internalType": "address",
          "name": "owner",
          "type": "address"
        },
        {
          "internalType": "address",
          "name": "spender",
          "type": "address"
        }
      ],
      "name": "allowance",
      "outputs": [
        {
          "internalType": "uint256",
          "name": "",
          "type": "uint256"
        }
      ],
      "stateMutability": "view",
      "type": "function"
    },
    {
      "inputs": [
        {
          "internalType": "address",
          "name": "spender",
          "type": "address"
        },
        {
          "internalType": "uint256",
          "name": "amount",
          "type": "uint256"
        }
      ],
      "name": "approve",
      "outputs": [
        {
          "internalType": "bool",
          "name": "",
          "type": "bool"
        }
      ],
      "stateMutability": "nonpayable",
      "type": "function"
    },
    {
      "inputs": [
        {
          "internalType": "address",
          "name": "account",
          "type": "address"
        }
      ],
      "name": "balanceOf",
      "outputs": [
        {
          "internalType": "uint256",
          "name": "",
          "type": "uint256"
        }
      ],
      "stateMutability": "view",
      "type": "function"
    },
    {
      "inputs": [
        {
          "internalType": "address",
          "name": "account",
          "type": "address"
        },
        {
          "internalType": "uint256",
          "name": "snapshotId",
          "type": "uint256"
        }
      ],
      "name": "balanceOfAt",
      "outputs": [
        {
          "internalType": "uint256",
          "name": "",
          "type": "uint256"
        }
      ],
      "stateMutability": "view",
      "type": "function"
    },
    {
      "inputs": [
        {
          "internalType": "uint256",
          "name": "amount",
          "type": "uint256"
        }
      ],
      "name": "burn",
      "outputs": [],
      "stateMutability": "nonpayable",
      "type": "function"
    },
    {
      "inputs": [
        {
          "internalType": "address",
          "name": "account",
          "type": "address"
        },
        {
          "internalType": "uint256",
          "name": "amount",
          "type": "uint256"
        }
      ],
      "name": "burnFrom",
      "outputs": [],
      "stateMutability": "nonpayable",
      "type": "function"
    },
    {
      "inputs": [],
      "name": "claim",
      "outputs": [],
      "stateMutability": "nonpayable",
      "type": "function"
    },
    {
      "inputs": [],
      "name": "decimals",
      "outputs": [
        {
          "internalType": "uint8",
          "name": "",
          "type": "uint8"
        }
      ],
      "stateMutability": "view",
      "type": "function"
    },
    {
      "inputs": [
        {
          "internalType": "address",
          "name": "spender",
          "type": "address"
        },
        {
          "internalType": "uint256",
          "name": "subtractedValue",
          "type": "uint256"
        }
      ],
      "name": "decreaseAllowance",
      "outputs": [
        {
          "internalType": "bool",
          "name": "",
          "type": "bool"
        }
      ],
      "stateMutability": "nonpayable",
      "type": "function"
    },
    {
      "inputs": [
        {
          "internalType": "bytes32",
          "name": "role",
          "type": "bytes32"
        }
      ],
      "name": "getRoleAdmin",
      "outputs": [
        {
          "internalType": "bytes32",
          "name": "",
          "type": "bytes32"
        }
      ],
      "stateMutability": "view",
      "type": "function"
    },
    {
      "inputs": [],
      "name": "get_claim_number",
      "outputs": [
        {
          "internalType": "uint256",
          "name": "",
          "type": "uint256"
        }
      ],
      "stateMutability": "view",
      "type": "function"
    },
    {
      "inputs": [
        {
          "internalType": "bytes32",
          "name": "role",
          "type": "bytes32"
        },
        {
          "internalType": "address",
          "name": "account",
          "type": "address"
        }
      ],
      "name": "grantRole",
      "outputs": [],
      "stateMutability": "nonpayable",
      "type": "function"
    },
    {
      "inputs": [
        {
          "internalType": "bytes32",
          "name": "role",
          "type": "bytes32"
        },
        {
          "internalType": "address",
          "name": "account",
          "type": "address"
        }
      ],
      "name": "hasRole",
      "outputs": [
        {
          "internalType": "bool",
          "name": "",
          "type": "bool"
        }
      ],
      "stateMutability": "view",
      "type": "function"
    },
    {
      "inputs": [
        {
          "internalType": "address",
          "name": "spender",
          "type": "address"
        },
        {
          "internalType": "uint256",
          "name": "addedValue",
          "type": "uint256"
        }
      ],
      "name": "increaseAllowance",
      "outputs": [
        {
          "internalType": "bool",
          "name": "",
          "type": "bool"
        }
      ],
      "stateMutability": "nonpayable",
      "type": "function"
    },
    {
      "inputs": [],
      "name": "initialize",
      "outputs": [],
      "stateMutability": "nonpayable",
      "type": "function"
    },
    {
      "inputs": [
        {
          "internalType": "address",
          "name": "to",
          "type": "address"
        },
        {
          "internalType": "uint256",
          "name": "amount",
          "type": "uint256"
        }
      ],
      "name": "mint",
      "outputs": [],
      "stateMutability": "nonpayable",
      "type": "function"
    },
    {
      "inputs": [],
      "name": "name",
      "outputs": [
        {
          "internalType": "string",
          "name": "",
          "type": "string"
        }
      ],
      "stateMutability": "view",
      "type": "function"
    },
    {
      "inputs": [
        {
          "internalType": "address",
          "name": "owner",
          "type": "address"
        }
      ],
      "name": "nonces",
      "outputs": [
        {
          "internalType": "uint256",
          "name": "",
          "type": "uint256"
        }
      ],
      "stateMutability": "view",
      "type": "function"
    },
    {
      "inputs": [],
      "name": "pause",
      "outputs": [],
      "stateMutability": "nonpayable",
      "type": "function"
    },
    {
      "inputs": [],
      "name": "paused",
      "outputs": [
        {
          "internalType": "bool",
          "name": "",
          "type": "bool"
        }
      ],
      "stateMutability": "view",
      "type": "function"
    },
    {
      "inputs": [
        {
          "internalType": "address",
          "name": "owner",
          "type": "address"
        },
        {
          "internalType": "address",
          "name": "spender",
          "type": "address"
        },
        {
          "internalType": "uint256",
          "name": "value",
          "type": "uint256"
        },
        {
          "internalType": "uint256",
          "name": "deadline",
          "type": "uint256"
        },
        {
          "internalType": "uint8",
          "name": "v",
          "type": "uint8"
        },
        {
          "internalType": "bytes32",
          "name": "r",
          "type": "bytes32"
        },
        {
          "internalType": "bytes32",
          "name": "s",
          "type": "bytes32"
        }
      ],
      "name": "permit",
      "outputs": [],
      "stateMutability": "nonpayable",
      "type": "function"
    },
    {
      "inputs": [],
      "name": "proxiableUUID",
      "outputs": [
        {
          "internalType": "bytes32",
          "name": "",
          "type": "bytes32"
        }
      ],
      "stateMutability": "view",
      "type": "function"
    },
    {
      "inputs": [
        {
          "internalType": "bytes32",
          "name": "role",
          "type": "bytes32"
        },
        {
          "internalType": "address",
          "name": "account",
          "type": "address"
        }
      ],
      "name": "renounceRole",
      "outputs": [],
      "stateMutability": "nonpayable",
      "type": "function"
    },
    {
      "inputs": [
        {
          "internalType": "bytes32",
          "name": "role",
          "type": "bytes32"
        },
        {
          "internalType": "address",
          "name": "account",
          "type": "address"
        }
      ],
      "name": "revokeRole",
      "outputs": [],
      "stateMutability": "nonpayable",
      "type": "function"
    },
    {
      "inputs": [
        {
          "internalType": "uint256",
          "name": "amount",
          "type": "uint256"
        }
      ],
      "name": "set_claim_number",
      "outputs": [],
      "stateMutability": "nonpayable",
      "type": "function"
    },
    {
      "inputs": [],
      "name": "snapshot",
      "outputs": [],
      "stateMutability": "nonpayable",
      "type": "function"
    },
    {
      "inputs": [
        {
          "internalType": "bytes4",
          "name": "interfaceId",
          "type": "bytes4"
        }
      ],
      "name": "supportsInterface",
      "outputs": [
        {
          "internalType": "bool",
          "name": "",
          "type": "bool"
        }
      ],
      "stateMutability": "view",
      "type": "function"
    },
    {
      "inputs": [],
      "name": "symbol",
      "outputs": [
        {
          "internalType": "string",
          "name": "",
          "type": "string"
        }
      ],
      "stateMutability": "view",
      "type": "function"
    },
    {
      "inputs": [],
      "name": "totalSupply",
      "outputs": [
        {
          "internalType": "uint256",
          "name": "",
          "type": "uint256"
        }
      ],
      "stateMutability": "view",
      "type": "function"
    },
    {
      "inputs": [
        {
          "internalType": "uint256",
          "name": "snapshotId",
          "type": "uint256"
        }
      ],
      "name": "totalSupplyAt",
      "outputs": [
        {
          "internalType": "uint256",
          "name": "",
          "type": "uint256"
        }
      ],
      "stateMutability": "view",
      "type": "function"
    },
    {
      "inputs": [
        {
          "internalType": "address",
          "name": "to",
          "type": "address"
        },
        {
          "internalType": "uint256",
          "name": "amount",
          "type": "uint256"
        }
      ],
      "name": "transfer",
      "outputs": [
        {
          "internalType": "bool",
          "name": "",
          "type": "bool"
        }
      ],
      "stateMutability": "nonpayable",
      "type": "function"
    },
    {
      "inputs": [
        {
          "internalType": "address",
          "name": "from",
          "type": "address"
        },
        {
          "internalType": "address",
          "name": "to",
          "type": "address"
        },
        {
          "internalType": "uint256",
          "name": "amount",
          "type": "uint256"
        }
      ],
      "name": "transferFrom",
      "outputs": [
        {
          "internalType": "bool",
          "name": "",
          "type": "bool"
        }
      ],
      "stateMutability": "nonpayable",
      "type": "function"
    },
    {
      "inputs": [],
      "name": "unpause",
      "outputs": [],
      "stateMutability": "nonpayable",
      "type": "function"
    },
    {
      "inputs": [
        {
          "internalType": "address",
          "name": "newImplementation",
          "type": "address"
        }
      ],
      "name": "upgradeTo",
      "outputs": [],
      "stateMutability": "nonpayable",
      "type": "function"
    },
    {
      "inputs": [
        {
          "internalType": "address",
          "name": "newImplementation",
          "type": "address"
        },
        {
          "internalType": "bytes",
          "name": "data",
          "type": "bytes"
        }
      ],
      "name": "upgradeToAndCall",
      "outputs": [],
      "stateMutability": "payable",
      "type": "function"
    }
  ],
  "bytecode": "0x60a06040523073ffffffffffffffffffffffffffffffffffffffff1660809073ffffffffffffffffffffffffffffffffffffffff1660601b8152503480156200004757600080fd5b50620000586200005e60201b60201c565b62000245565b6200007060ff6200007360201b60201c565b50565b60008060019054906101000a900460ff1615620000fd5760018260ff16148015620000b15750620000af306200017960201b62001a721760201c565b155b620000f3576040517f08c379a0000000000000000000000000000000000000000000000000000000008152600401620000ea90620001c3565b60405180910390fd5b6000905062000174565b8160ff1660008054906101000a900460ff1660ff161062000155576040517f08c379a00000000000000000000000000000000000000000000000000000000081526004016200014c90620001c3565b60405180910390fd5b816000806101000a81548160ff021916908360ff160217905550600190505b919050565b6000808273ffffffffffffffffffffffffffffffffffffffff163b119050919050565b6000620001ab602e83620001e5565b9150620001b882620001f6565b604082019050919050565b60006020820190508181036000830152620001de816200019c565b9050919050565b600082825260208201905092915050565b7f496e697469616c697a61626c653a20636f6e747261637420697320616c72656160008201527f647920696e697469616c697a6564000000000000000000000000000000000000602082015250565b60805160601c615da66200028060003960008181610c0f01528181610c9e01528181611037015281816110c601526111760152615da66000f3fe6080604052600436106102465760003560e01c80635c975abb11610139578063981b24d0116100b6578063d53913931161007a578063d539139314610881578063d547741f146108ac578063dd62ed3e146108d5578063e63ab1e914610912578063ee0d23041461093d578063f72c0d8b1461096857610246565b8063981b24d014610776578063a217fddf146107b3578063a457c2d7146107de578063a9059cbb1461081b578063d505accf1461085857610246565b80638129fc1c116100fd5780638129fc1c146106c95780638456cb59146106e057806391d14854146106f757806395d89b41146107345780639711715a1461075f57610246565b80635c975abb146105d05780637028e2cd146105fb57806370a082311461062657806379cc6790146106635780637ecebe001461068c57610246565b806336568abe116101c757806342966c681161018b57806342966c681461050c5780634e71d92d146105355780634ee2cd7e1461054c5780634f1ef2861461058957806352d1902d146105a557610246565b806336568abe1461043d5780633659cfe614610466578063395093511461048f5780633f4ba83a146104cc57806340c10f19146104e357610246565b8063248a9ca31161020e578063248a9ca3146103585780632f2ff15d14610395578063313ce567146103be57806335e787c4146103e95780633644e5151461041257610246565b806301ffc9a71461024b57806306fdde0314610288578063095ea7b3146102b357806318160ddd146102f057806323b872dd1461031b575b600080fd5b34801561025757600080fd5b50610272600480360381019061026d919061426e565b610993565b60405161027f9190614938565b60405180910390f35b34801561029457600080fd5b5061029d610a0d565b6040516102aa9190614a82565b60405180910390f35b3480156102bf57600080fd5b506102da60048036038101906102d591906141a4565b610a9f565b6040516102e79190614938565b60405180910390f35b3480156102fc57600080fd5b50610305610ac2565b6040516103129190614ea4565b60405180910390f35b34801561032757600080fd5b50610342600480360381019061033d9190614063565b610acc565b60405161034f9190614938565b60405180910390f35b34801561036457600080fd5b5061037f600480360381019061037a91906141e0565b610afb565b60405161038c9190614953565b60405180910390f35b3480156103a157600080fd5b506103bc60048036038101906103b79190614232565b610b1b565b005b3480156103ca57600080fd5b506103d3610b3c565b6040516103e09190614ebf565b60405180910390f35b3480156103f557600080fd5b50610410600480360381019061040b9190614297565b610b45565b005b34801561041e57600080fd5b50610427610b7b565b6040516104349190614953565b60405180910390f35b34801561044957600080fd5b50610464600480360381019061045f9190614232565b610b8a565b005b34801561047257600080fd5b5061048d60048036038101906104889190613ffe565b610c0d565b005b34801561049b57600080fd5b506104b660048036038101906104b191906141a4565b610dbc565b6040516104c39190614938565b60405180910390f35b3480156104d857600080fd5b506104e1610df3565b005b3480156104ef57600080fd5b5061050a600480360381019061050591906141a4565b610e28565b005b34801561051857600080fd5b50610533600480360381019061052e9190614297565b610e61565b005b34801561054157600080fd5b5061054a610e75565b005b34801561055857600080fd5b50610573600480360381019061056e91906141a4565b610fc5565b6040516105809190614ea4565b60405180910390f35b6105a3600480360381019061059e9190614150565b611035565b005b3480156105b157600080fd5b506105ba611172565b6040516105c79190614953565b60405180910390f35b3480156105dc57600080fd5b506105e561122b565b6040516105f29190614938565b60405180910390f35b34801561060757600080fd5b50610610611243565b60405161061d9190614953565b60405180910390f35b34801561063257600080fd5b5061064d60048036038101906106489190613ffe565b611267565b60405161065a9190614ea4565b60405180910390f35b34801561066f57600080fd5b5061068a600480360381019061068591906141a4565b6112b0565b005b34801561069857600080fd5b506106b360048036038101906106ae9190613ffe565b6112d0565b6040516106c09190614ea4565b60405180910390f35b3480156106d557600080fd5b506106de611321565b005b3480156106ec57600080fd5b506106f56115ac565b005b34801561070357600080fd5b5061071e60048036038101906107199190614232565b6115e1565b60405161072b9190614938565b60405180910390f35b34801561074057600080fd5b5061074961164c565b6040516107569190614a82565b60405180910390f35b34801561076b57600080fd5b506107746116de565b005b34801561078257600080fd5b5061079d60048036038101906107989190614297565b611714565b6040516107aa9190614ea4565b60405180910390f35b3480156107bf57600080fd5b506107c8611745565b6040516107d59190614953565b60405180910390f35b3480156107ea57600080fd5b50610805600480360381019061080091906141a4565b61174c565b6040516108129190614938565b60405180910390f35b34801561082757600080fd5b50610842600480360381019061083d91906141a4565b6117c3565b60405161084f9190614938565b60405180910390f35b34801561086457600080fd5b5061087f600480360381019061087a91906140b2565b6117e6565b005b34801561088d57600080fd5b50610896611928565b6040516108a39190614953565b60405180910390f35b3480156108b857600080fd5b506108d360048036038101906108ce9190614232565b61194c565b005b3480156108e157600080fd5b506108fc60048036038101906108f79190614027565b61196d565b6040516109099190614ea4565b60405180910390f35b34801561091e57600080fd5b506109276119f4565b6040516109349190614953565b60405180910390f35b34801561094957600080fd5b50610952611a18565b60405161095f9190614ea4565b60405180910390f35b34801561097457600080fd5b5061097d611a4e565b60405161098a9190614953565b60405180910390f35b60007f7965db0b000000000000000000000000000000000000000000000000000000007bffffffffffffffffffffffffffffffffffffffffffffffffffffffff1916827bffffffffffffffffffffffffffffffffffffffffffffffffffffffff19161480610a065750610a0582611a95565b5b9050919050565b606060368054610a1c906152fc565b80601f0160208091040260200160405190810160405280929190818152602001828054610a48906152fc565b8015610a955780601f10610a6a57610100808354040283529160200191610a95565b820191906000526020600020905b815481529060010190602001808311610a7857829003601f168201915b5050505050905090565b600080610aaa611aff565b9050610ab7818585611b07565b600191505092915050565b6000603554905090565b600080610ad7611aff565b9050610ae4858285611cd2565b610aef858585611d5e565b60019150509392505050565b600060fb6000838152602001908152602001600020600101549050919050565b610b2482610afb565b610b2d81611fe2565b610b378383611ff6565b505050565b60006012905090565b7f9f2df0fed2c77648de5860a4cc508cd0818c85b8b8a1ab4ceeef8d981c8956a6610b6f81611fe2565b8161022a819055505050565b6000610b856120d7565b905090565b610b92611aff565b73ffffffffffffffffffffffffffffffffffffffff168173ffffffffffffffffffffffffffffffffffffffff1614610bff576040517f08c379a0000000000000000000000000000000000000000000000000000000008152600401610bf690614e64565b60405180910390fd5b610c098282612117565b5050565b7f000000000000000000000000000000000000000000000000000000000000000073ffffffffffffffffffffffffffffffffffffffff163073ffffffffffffffffffffffffffffffffffffffff161415610c9c576040517f08c379a0000000000000000000000000000000000000000000000000000000008152600401610c9390614ba4565b60405180910390fd5b7f000000000000000000000000000000000000000000000000000000000000000073ffffffffffffffffffffffffffffffffffffffff16610cdb6121f9565b73ffffffffffffffffffffffffffffffffffffffff1614610d31576040517f08c379a0000000000000000000000000000000000000000000000000000000008152600401610d2890614c44565b60405180910390fd5b610d3a81612250565b610db981600067ffffffffffffffff811115610d7f577f4e487b7100000000000000000000000000000000000000000000000000000000600052604160045260246000fd5b6040519080825280601f01601f191660200182016040528015610db15781602001600182028036833780820191505090505b50600061227e565b50565b600080610dc7611aff565b9050610de8818585610dd9858961196d565b610de39190614f6d565b611b07565b600191505092915050565b7f65d7a28e3265b37a6474929f336521b332c1681b933f6cb9f3376673440d862a610e1d81611fe2565b610e256123fb565b50565b7f9f2df0fed2c77648de5860a4cc508cd0818c85b8b8a1ab4ceeef8d981c8956a6610e5281611fe2565b610e5c838361249e565b505050565b610e72610e6c611aff565b826125ff565b50565b3373ffffffffffffffffffffffffffffffffffffffff163273ffffffffffffffffffffffffffffffffffffffff1614610ee3576040517f08c379a0000000000000000000000000000000000000000000000000000000008152600401610eda90614ca4565b60405180910390fd5b6301da9c0061022b5442610ef791906151bf565b11158015610f5657506000151561022c60003373ffffffffffffffffffffffffffffffffffffffff1673ffffffffffffffffffffffffffffffffffffffff16815260200190815260200160002060009054906101000a900460ff161515145b15610fc357600161022c60003373ffffffffffffffffffffffffffffffffffffffff1673ffffffffffffffffffffffffffffffffffffffff16815260200190815260200160002060006101000a81548160ff021916908315150217905550610fc2303361022a54611d5e565b5b565b600080600061101284609760008873ffffffffffffffffffffffffffffffffffffffff1673ffffffffffffffffffffffffffffffffffffffff1681526020019081526020016000206127d8565b91509150816110295761102485611267565b61102b565b805b9250505092915050565b7f000000000000000000000000000000000000000000000000000000000000000073ffffffffffffffffffffffffffffffffffffffff163073ffffffffffffffffffffffffffffffffffffffff1614156110c4576040517f08c379a00000000000000000000000000000000000000000000000000000000081526004016110bb90614ba4565b60405180910390fd5b7f000000000000000000000000000000000000000000000000000000000000000073ffffffffffffffffffffffffffffffffffffffff166111036121f9565b73ffffffffffffffffffffffffffffffffffffffff1614611159576040517f08c379a000000000000000000000000000000000000000000000000000000000815260040161115090614c44565b60405180910390fd5b61116282612250565b61116e8282600161227e565b5050565b60007f000000000000000000000000000000000000000000000000000000000000000073ffffffffffffffffffffffffffffffffffffffff163073ffffffffffffffffffffffffffffffffffffffff1614611202576040517f08c379a00000000000000000000000000000000000000000000000000000000081526004016111f990614c64565b60405180910390fd5b7f360894a13ba1a3210667c828492db98dca3e2076cc3735a920a3ca505d382bbc60001b905090565b600061012d60009054906101000a900460ff16905090565b7f5fdbd35e8da83ee755d5e62a539e5ed7f47126abede0b8b10f9ea43dc6eed07f81565b6000603360008373ffffffffffffffffffffffffffffffffffffffff1673ffffffffffffffffffffffffffffffffffffffff168152602001908152602001600020549050919050565b6112c2826112bc611aff565b83611cd2565b6112cc82826125ff565b5050565b600061131a61019360008473ffffffffffffffffffffffffffffffffffffffff1673ffffffffffffffffffffffffffffffffffffffff1681526020019081526020016000206128f4565b9050919050565b600061132d6001612902565b90508015611351576001600060016101000a81548160ff0219169083151502179055505b6113c56040518060400160405280600581526020017f417370656e0000000000000000000000000000000000000000000000000000008152506040518060400160405280600581526020017f415350454e0000000000000000000000000000000000000000000000000000008152506129f2565b6113cd612a4f565b6113d5612aa0565b6113dd612af1565b6113e5612b42565b6114236040518060400160405280600581526020017f417370656e000000000000000000000000000000000000000000000000000000815250612b9b565b61142b612c2c565b6114386000801b33611ff6565b6114627f5fdbd35e8da83ee755d5e62a539e5ed7f47126abede0b8b10f9ea43dc6eed07f33611ff6565b61148c7f65d7a28e3265b37a6474929f336521b332c1681b933f6cb9f3376673440d862a33611ff6565b6114b830611498610b3c565b600a6114a49190615047565b6305f45a606114b39190615165565b61249e565b6114e3336114c4610b3c565b600a6114d09190615047565b620186a06114de9190615165565b61249e565b61150d7f9f2df0fed2c77648de5860a4cc508cd0818c85b8b8a1ab4ceeef8d981c8956a633611ff6565b6115377f189ab7a9244df0848122154315af71fe140f3db0fe014031783b0946b8c9d2e333611ff6565b4261022b819055506802b5e3af16b188000061022a8190555080156115a95760008060016101000a81548160ff0219169083151502179055507f7f26b83ff96e1f2b6a682f133852f6798a09c465da95921460cefb384740249860016040516115a09190614a67565b60405180910390a15b50565b7f65d7a28e3265b37a6474929f336521b332c1681b933f6cb9f3376673440d862a6115d681611fe2565b6115de612c7d565b50565b600060fb600084815260200190815260200160002060000160008373ffffffffffffffffffffffffffffffffffffffff1673ffffffffffffffffffffffffffffffffffffffff16815260200190815260200160002060009054906101000a900460ff16905092915050565b60606037805461165b906152fc565b80601f0160208091040260200160405190810160405280929190818152602001828054611687906152fc565b80156116d45780601f106116a9576101008083540402835291602001916116d4565b820191906000526020600020905b8154815290600101906020018083116116b757829003601f168201915b5050505050905090565b7f5fdbd35e8da83ee755d5e62a539e5ed7f47126abede0b8b10f9ea43dc6eed07f61170881611fe2565b611710612d21565b5050565b60008060006117248460986127d8565b915091508161173a57611735610ac2565b61173c565b805b92505050919050565b6000801b81565b600080611757611aff565b90506000611765828661196d565b9050838110156117aa576040517f08c379a00000000000000000000000000000000000000000000000000000000081526004016117a190614e44565b60405180910390fd5b6117b78286868403611b07565b60019250505092915050565b6000806117ce611aff565b90506117db818585611d5e565b600191505092915050565b83421115611829576040517f08c379a000000000000000000000000000000000000000000000000000000000815260040161182090614be4565b60405180910390fd5b60007f6e71edae12b1b97f4d1f60370fef10105fa2faae0126114a169c64845d6126c98888886118588c612d77565b8960405160200161186e9695949392919061496e565b604051602081830303815290604052805190602001209050600061189182612dd6565b905060006118a182878787612df0565b90508973ffffffffffffffffffffffffffffffffffffffff168173ffffffffffffffffffffffffffffffffffffffff1614611911576040517f08c379a000000000000000000000000000000000000000000000000000000000815260040161190890614d44565b60405180910390fd5b61191c8a8a8a611b07565b50505050505050505050565b7f9f2df0fed2c77648de5860a4cc508cd0818c85b8b8a1ab4ceeef8d981c8956a681565b61195582610afb565b61195e81611fe2565b6119688383612117565b505050565b6000603460008473ffffffffffffffffffffffffffffffffffffffff1673ffffffffffffffffffffffffffffffffffffffff16815260200190815260200160002060008373ffffffffffffffffffffffffffffffffffffffff1673ffffffffffffffffffffffffffffffffffffffff16815260200190815260200160002054905092915050565b7f65d7a28e3265b37a6474929f336521b332c1681b933f6cb9f3376673440d862a81565b60007f9f2df0fed2c77648de5860a4cc508cd0818c85b8b8a1ab4ceeef8d981c8956a6611a4481611fe2565b61022a5491505090565b7f189ab7a9244df0848122154315af71fe140f3db0fe014031783b0946b8c9d2e381565b6000808273ffffffffffffffffffffffffffffffffffffffff163b119050919050565b60007f01ffc9a7000000000000000000000000000000000000000000000000000000007bffffffffffffffffffffffffffffffffffffffffffffffffffffffff1916827bffffffffffffffffffffffffffffffffffffffffffffffffffffffff1916149050919050565b600033905090565b600073ffffffffffffffffffffffffffffffffffffffff168373ffffffffffffffffffffffffffffffffffffffff161415611b77576040517f08c379a0000000000000000000000000000000000000000000000000000000008152600401611b6e90614de4565b60405180910390fd5b600073ffffffffffffffffffffffffffffffffffffffff168273ffffffffffffffffffffffffffffffffffffffff161415611be7576040517f08c379a0000000000000000000000000000000000000000000000000000000008152600401611bde90614b84565b60405180910390fd5b80603460008573ffffffffffffffffffffffffffffffffffffffff1673ffffffffffffffffffffffffffffffffffffffff16815260200190815260200160002060008473ffffffffffffffffffffffffffffffffffffffff1673ffffffffffffffffffffffffffffffffffffffff168152602001908152602001600020819055508173ffffffffffffffffffffffffffffffffffffffff168373ffffffffffffffffffffffffffffffffffffffff167f8c5be1e5ebec7d5bd14f71427d1e84f3dd0314c0f7b2291e5b200ac8c7c3b92583604051611cc59190614ea4565b60405180910390a3505050565b6000611cde848461196d565b90507fffffffffffffffffffffffffffffffffffffffffffffffffffffffffffffffff8114611d585781811015611d4a576040517f08c379a0000000000000000000000000000000000000000000000000000000008152600401611d4190614bc4565b60405180910390fd5b611d578484848403611b07565b5b50505050565b600073ffffffffffffffffffffffffffffffffffffffff168373ffffffffffffffffffffffffffffffffffffffff161415611dce576040517f08c379a0000000000000000000000000000000000000000000000000000000008152600401611dc590614dc4565b60405180910390fd5b600073ffffffffffffffffffffffffffffffffffffffff168273ffffffffffffffffffffffffffffffffffffffff161415611e3e576040517f08c379a0000000000000000000000000000000000000000000000000000000008152600401611e3590614b04565b60405180910390fd5b611e49838383612e1b565b6000603360008573ffffffffffffffffffffffffffffffffffffffff1673ffffffffffffffffffffffffffffffffffffffff16815260200190815260200160002054905081811015611ed0576040517f08c379a0000000000000000000000000000000000000000000000000000000008152600401611ec790614c04565b60405180910390fd5b818103603360008673ffffffffffffffffffffffffffffffffffffffff1673ffffffffffffffffffffffffffffffffffffffff1681526020019081526020016000208190555081603360008573ffffffffffffffffffffffffffffffffffffffff1673ffffffffffffffffffffffffffffffffffffffff1681526020019081526020016000206000828254611f659190614f6d565b925050819055508273ffffffffffffffffffffffffffffffffffffffff168473ffffffffffffffffffffffffffffffffffffffff167fddf252ad1be2c89b69c2b068fc378daa952ba7f163c4a11628f55a4df523b3ef84604051611fc99190614ea4565b60405180910390a3611fdc848484612e73565b50505050565b611ff381611fee611aff565b612e78565b50565b61200082826115e1565b6120d357600160fb600084815260200190815260200160002060000160008373ffffffffffffffffffffffffffffffffffffffff1673ffffffffffffffffffffffffffffffffffffffff16815260200190815260200160002060006101000a81548160ff021916908315150217905550612078611aff565b73ffffffffffffffffffffffffffffffffffffffff168173ffffffffffffffffffffffffffffffffffffffff16837f2f8788117e7eff1d82e926ec794901d17c78024a50270940304540a733656f0d60405160405180910390a45b5050565b60006121127f8b73c3c69bb8fe3d512ecc4cf759cc79239f7b179b0ffacaa9a75d522b39400f612105612f15565b61210d612f20565b612f2b565b905090565b61212182826115e1565b156121f557600060fb600084815260200190815260200160002060000160008373ffffffffffffffffffffffffffffffffffffffff1673ffffffffffffffffffffffffffffffffffffffff16815260200190815260200160002060006101000a81548160ff02191690831515021790555061219a611aff565b73ffffffffffffffffffffffffffffffffffffffff168173ffffffffffffffffffffffffffffffffffffffff16837ff6391f5c32d9c69d2a47ea670b442974b53935d1edc7fd64eb21e047a839171b60405160405180910390a45b5050565b60006122277f360894a13ba1a3210667c828492db98dca3e2076cc3735a920a3ca505d382bbc60001b612f65565b60000160009054906101000a900473ffffffffffffffffffffffffffffffffffffffff16905090565b7f189ab7a9244df0848122154315af71fe140f3db0fe014031783b0946b8c9d2e361227a81611fe2565b5050565b6122aa7f4910fdfa16fed3260ed0e7147f7cc6da11a60208b5b9406d12a635614ffd914360001b612f6f565b60000160009054906101000a900460ff16156122ce576122c983612f79565b6123f6565b8273ffffffffffffffffffffffffffffffffffffffff166352d1902d6040518163ffffffff1660e01b815260040160206040518083038186803b15801561231457600080fd5b505afa92505050801561234557506040513d601f19601f820116820180604052508101906123429190614209565b60015b612384576040517f08c379a000000000000000000000000000000000000000000000000000000000815260040161237b90614d24565b60405180910390fd5b7f360894a13ba1a3210667c828492db98dca3e2076cc3735a920a3ca505d382bbc60001b81146123e9576040517f08c379a00000000000000000000000000000000000000000000000000000000081526004016123e090614cc4565b60405180910390fd5b506123f5838383613032565b5b505050565b61240361122b565b612442576040517f08c379a000000000000000000000000000000000000000000000000000000000815260040161243990614b24565b60405180910390fd5b600061012d60006101000a81548160ff0219169083151502179055507f5db9ee0a495bf2e6ff9c91a7834c1ba4fdd244a5e8aa4e537bd38aeae4b073aa612487611aff565b604051612494919061491d565b60405180910390a1565b600073ffffffffffffffffffffffffffffffffffffffff168273ffffffffffffffffffffffffffffffffffffffff16141561250e576040517f08c379a000000000000000000000000000000000000000000000000000000000815260040161250590614e84565b60405180910390fd5b61251a60008383612e1b565b806035600082825461252c9190614f6d565b9250508190555080603360008473ffffffffffffffffffffffffffffffffffffffff1673ffffffffffffffffffffffffffffffffffffffff16815260200190815260200160002060008282546125829190614f6d565b925050819055508173ffffffffffffffffffffffffffffffffffffffff16600073ffffffffffffffffffffffffffffffffffffffff167fddf252ad1be2c89b69c2b068fc378daa952ba7f163c4a11628f55a4df523b3ef836040516125e79190614ea4565b60405180910390a36125fb60008383612e73565b5050565b600073ffffffffffffffffffffffffffffffffffffffff168273ffffffffffffffffffffffffffffffffffffffff16141561266f576040517f08c379a000000000000000000000000000000000000000000000000000000000815260040161266690614d84565b60405180910390fd5b61267b82600083612e1b565b6000603360008473ffffffffffffffffffffffffffffffffffffffff1673ffffffffffffffffffffffffffffffffffffffff16815260200190815260200160002054905081811015612702576040517f08c379a00000000000000000000000000000000000000000000000000000000081526004016126f990614b44565b60405180910390fd5b818103603360008573ffffffffffffffffffffffffffffffffffffffff1673ffffffffffffffffffffffffffffffffffffffff16815260200190815260200160002081905550816035600082825461275a91906151bf565b92505081905550600073ffffffffffffffffffffffffffffffffffffffff168373ffffffffffffffffffffffffffffffffffffffff167fddf252ad1be2c89b69c2b068fc378daa952ba7f163c4a11628f55a4df523b3ef846040516127bf9190614ea4565b60405180910390a36127d383600084612e73565b505050565b6000806000841161281e576040517f08c379a000000000000000000000000000000000000000000000000000000000815260040161281590614e24565b60405180910390fd5b61282661305e565b841115612868576040517f08c379a000000000000000000000000000000000000000000000000000000000815260040161285f90614ac4565b60405180910390fd5b6000612880858560000161306f90919063ffffffff16565b9050836000018054905081141561289e5760008092509250506128ed565b60018460010182815481106128dc577f4e487b7100000000000000000000000000000000000000000000000000000000600052603260045260246000fd5b906000526020600020015492509250505b9250929050565b600081600001549050919050565b60008060019054906101000a900460ff16156129795760018260ff16148015612931575061292f30611a72565b155b612970576040517f08c379a000000000000000000000000000000000000000000000000000000000815260040161296790614ce4565b60405180910390fd5b600090506129ed565b8160ff1660008054906101000a900460ff1660ff16106129ce576040517f08c379a00000000000000000000000000000000000000000000000000000000081526004016129c590614ce4565b60405180910390fd5b816000806101000a81548160ff021916908360ff160217905550600190505b919050565b600060019054906101000a900460ff16612a41576040517f08c379a0000000000000000000000000000000000000000000000000000000008152600401612a3890614e04565b60405180910390fd5b612a4b8282613195565b5050565b600060019054906101000a900460ff16612a9e576040517f08c379a0000000000000000000000000000000000000000000000000000000008152600401612a9590614e04565b60405180910390fd5b565b600060019054906101000a900460ff16612aef576040517f08c379a0000000000000000000000000000000000000000000000000000000008152600401612ae690614e04565b60405180910390fd5b565b600060019054906101000a900460ff16612b40576040517f08c379a0000000000000000000000000000000000000000000000000000000008152600401612b3790614e04565b60405180910390fd5b565b600060019054906101000a900460ff16612b91576040517f08c379a0000000000000000000000000000000000000000000000000000000008152600401612b8890614e04565b60405180910390fd5b612b99613216565b565b600060019054906101000a900460ff16612bea576040517f08c379a0000000000000000000000000000000000000000000000000000000008152600401612be190614e04565b60405180910390fd5b612c29816040518060400160405280600181526020017f3100000000000000000000000000000000000000000000000000000000000000815250613283565b50565b600060019054906101000a900460ff16612c7b576040517f08c379a0000000000000000000000000000000000000000000000000000000008152600401612c7290614e04565b60405180910390fd5b565b612c8561122b565b15612cc5576040517f08c379a0000000000000000000000000000000000000000000000000000000008152600401612cbc90614c84565b60405180910390fd5b600161012d60006101000a81548160ff0219169083151502179055507f62e78cea01bee320cd4e420270b5ea74000d11b0c9f74754ebdbfc544b05a258612d0a611aff565b604051612d17919061491d565b60405180910390a1565b6000612d2d609a613300565b6000612d3761305e565b90507f8030e83b04d87bef53480e26263266d6ca66863aa8506aca6f2559d18aa1cb6781604051612d689190614ea4565b60405180910390a18091505090565b60008061019360008473ffffffffffffffffffffffffffffffffffffffff1673ffffffffffffffffffffffffffffffffffffffff1681526020019081526020016000209050612dc5816128f4565b9150612dd081613300565b50919050565b6000612de9612de36120d7565b83613316565b9050919050565b6000806000612e0187878787613349565b91509150612e0e81613456565b8192505050949350505050565b612e2361122b565b15612e63576040517f08c379a0000000000000000000000000000000000000000000000000000000008152600401612e5a90614c84565b60405180910390fd5b612e6e8383836137a7565b505050565b505050565b612e8282826115e1565b612f1157612ea78173ffffffffffffffffffffffffffffffffffffffff166014613861565b612eb58360001c6020613861565b604051602001612ec69291906148e3565b6040516020818303038152906040526040517f08c379a0000000000000000000000000000000000000000000000000000000008152600401612f089190614a82565b60405180910390fd5b5050565b600061015f54905090565b600061016054905090565b60008383834630604051602001612f469594939291906149cf565b6040516020818303038152906040528051906020012090509392505050565b6000819050919050565b6000819050919050565b612f8281611a72565b612fc1576040517f08c379a0000000000000000000000000000000000000000000000000000000008152600401612fb890614d64565b60405180910390fd5b80612fee7f360894a13ba1a3210667c828492db98dca3e2076cc3735a920a3ca505d382bbc60001b612f65565b60000160006101000a81548173ffffffffffffffffffffffffffffffffffffffff021916908373ffffffffffffffffffffffffffffffffffffffff16021790555050565b61303b83613b5b565b6000825111806130485750805b15613059576130578383613baa565b505b505050565b600061306a609a6128f4565b905090565b60008083805490501415613086576000905061318f565b600080848054905090505b808210156131105760006130a58383613c8e565b9050848682815481106130e1577f4e487b7100000000000000000000000000000000000000000000000000000000600052603260045260246000fd5b906000526020600020015411156130fa5780915061310a565b6001816131079190614f6d565b92505b50613091565b60008211801561316e5750838560018461312a91906151bf565b81548110613161577f4e487b7100000000000000000000000000000000000000000000000000000000600052603260045260246000fd5b9060005260206000200154145b156131895760018261318091906151bf565b9250505061318f565b81925050505b92915050565b600060019054906101000a900460ff166131e4576040517f08c379a00000000000000000000000000000000000000000000000000000000081526004016131db90614e04565b60405180910390fd5b81603690805190602001906131fa929190613e75565b508060379080519060200190613211929190613e75565b505050565b600060019054906101000a900460ff16613265576040517f08c379a000000000000000000000000000000000000000000000000000000000815260040161325c90614e04565b60405180910390fd5b600061012d60006101000a81548160ff021916908315150217905550565b600060019054906101000a900460ff166132d2576040517f08c379a00000000000000000000000000000000000000000000000000000000081526004016132c990614e04565b60405180910390fd5b6000828051906020012090506000828051906020012090508161015f81905550806101608190555050505050565b6001816000016000828254019250508190555050565b6000828260405160200161332b9291906148ac565b60405160208183030381529060405280519060200120905092915050565b6000807f7fffffffffffffffffffffffffffffff5d576e7357a4501ddfe92f46681b20a08360001c111561338457600060039150915061344d565b601b8560ff161415801561339c5750601c8560ff1614155b156133ae57600060049150915061344d565b6000600187878787604051600081526020016040526040516133d39493929190614a22565b6020604051602081039080840390855afa1580156133f5573d6000803e3d6000fd5b505050602060405103519050600073ffffffffffffffffffffffffffffffffffffffff168173ffffffffffffffffffffffffffffffffffffffff1614156134445760006001925092505061344d565b80600092509250505b94509492505050565b60006004811115613490577f4e487b7100000000000000000000000000000000000000000000000000000000600052602160045260246000fd5b8160048111156134c9577f4e487b7100000000000000000000000000000000000000000000000000000000600052602160045260246000fd5b14156134d4576137a4565b6001600481111561350e577f4e487b7100000000000000000000000000000000000000000000000000000000600052602160045260246000fd5b816004811115613547577f4e487b7100000000000000000000000000000000000000000000000000000000600052602160045260246000fd5b1415613588576040517f08c379a000000000000000000000000000000000000000000000000000000000815260040161357f90614aa4565b60405180910390fd5b600260048111156135c2577f4e487b7100000000000000000000000000000000000000000000000000000000600052602160045260246000fd5b8160048111156135fb577f4e487b7100000000000000000000000000000000000000000000000000000000600052602160045260246000fd5b141561363c576040517f08c379a000000000000000000000000000000000000000000000000000000000815260040161363390614b64565b60405180910390fd5b60036004811115613676577f4e487b7100000000000000000000000000000000000000000000000000000000600052602160045260246000fd5b8160048111156136af577f4e487b7100000000000000000000000000000000000000000000000000000000600052602160045260246000fd5b14156136f0576040517f08c379a00000000000000000000000000000000000000000000000000000000081526004016136e790614c24565b60405180910390fd5b600480811115613729577f4e487b7100000000000000000000000000000000000000000000000000000000600052602160045260246000fd5b816004811115613762577f4e487b7100000000000000000000000000000000000000000000000000000000600052602160045260246000fd5b14156137a3576040517f08c379a000000000000000000000000000000000000000000000000000000000815260040161379a90614d04565b60405180910390fd5b5b50565b6137b2838383613cb4565b600073ffffffffffffffffffffffffffffffffffffffff168373ffffffffffffffffffffffffffffffffffffffff1614156137fd576137f082613cb9565b6137f8613d0c565b61385c565b600073ffffffffffffffffffffffffffffffffffffffff168273ffffffffffffffffffffffffffffffffffffffff1614156138485761383b83613cb9565b613843613d0c565b61385b565b61385183613cb9565b61385a82613cb9565b5b5b505050565b6060600060028360026138749190615165565b61387e9190614f6d565b67ffffffffffffffff8111156138bd577f4e487b7100000000000000000000000000000000000000000000000000000000600052604160045260246000fd5b6040519080825280601f01601f1916602001820160405280156138ef5781602001600182028036833780820191505090505b5090507f30000000000000000000000000000000000000000000000000000000000000008160008151811061394d577f4e487b7100000000000000000000000000000000000000000000000000000000600052603260045260246000fd5b60200101907effffffffffffffffffffffffffffffffffffffffffffffffffffffffffffff1916908160001a9053507f7800000000000000000000000000000000000000000000000000000000000000816001815181106139d7577f4e487b7100000000000000000000000000000000000000000000000000000000600052603260045260246000fd5b60200101907effffffffffffffffffffffffffffffffffffffffffffffffffffffffffffff1916908160001a90535060006001846002613a179190615165565b613a219190614f6d565b90505b6001811115613b0d577f3031323334353637383961626364656600000000000000000000000000000000600f861660108110613a89577f4e487b7100000000000000000000000000000000000000000000000000000000600052603260045260246000fd5b1a60f81b828281518110613ac6577f4e487b7100000000000000000000000000000000000000000000000000000000600052603260045260246000fd5b60200101907effffffffffffffffffffffffffffffffffffffffffffffffffffffffffffff1916908160001a905350600485901c945080613b06906152d2565b9050613a24565b5060008414613b51576040517f08c379a0000000000000000000000000000000000000000000000000000000008152600401613b4890614ae4565b60405180910390fd5b8091505092915050565b613b6481612f79565b8073ffffffffffffffffffffffffffffffffffffffff167fbc7cd75a20ee27fd9adebab32041f755214dbc6bffa90cc0225b39da2e5c2d3b60405160405180910390a250565b6060613bb583611a72565b613bf4576040517f08c379a0000000000000000000000000000000000000000000000000000000008152600401613beb90614da4565b60405180910390fd5b6000808473ffffffffffffffffffffffffffffffffffffffff1684604051613c1c9190614895565b600060405180830381855af49150503d8060008114613c57576040519150601f19603f3d011682016040523d82523d6000602084013e613c5c565b606091505b5091509150613c848282604051806060016040528060278152602001615d4a60279139613d20565b9250505092915050565b60006002828418613c9f9190614fc3565b828416613cac9190614f6d565b905092915050565b505050565b613d09609760008373ffffffffffffffffffffffffffffffffffffffff1673ffffffffffffffffffffffffffffffffffffffff168152602001908152602001600020613d0483611267565b613d87565b50565b613d1e6098613d19610ac2565b613d87565b565b60608315613d3057829050613d80565b600083511115613d435782518084602001fd5b816040517f08c379a0000000000000000000000000000000000000000000000000000000008152600401613d779190614a82565b60405180910390fd5b9392505050565b6000613d9161305e565b905080613da084600001613e02565b1015613dfd5782600001819080600181540180825580915050600190039060005260206000200160009091909190915055826001018290806001815401808255809150506001900390600052602060002001600090919091909150555b505050565b60008082805490501415613e195760009050613e70565b8160018380549050613e2b91906151bf565b81548110613e62577f4e487b7100000000000000000000000000000000000000000000000000000000600052603260045260246000fd5b906000526020600020015490505b919050565b828054613e81906152fc565b90600052602060002090601f016020900481019282613ea35760008555613eea565b82601f10613ebc57805160ff1916838001178555613eea565b82800160010185558215613eea579182015b82811115613ee9578251825591602001919060010190613ece565b5b509050613ef79190613efb565b5090565b5b80821115613f14576000816000905550600101613efc565b5090565b6000613f2b613f2684614eff565b614eda565b905082815260208101848484011115613f4357600080fd5b613f4e848285615290565b509392505050565b600081359050613f6581615cd6565b92915050565b600081359050613f7a81615ced565b92915050565b600081519050613f8f81615ced565b92915050565b600081359050613fa481615d04565b92915050565b600082601f830112613fbb57600080fd5b8135613fcb848260208601613f18565b91505092915050565b600081359050613fe381615d1b565b92915050565b600081359050613ff881615d32565b92915050565b60006020828403121561401057600080fd5b600061401e84828501613f56565b91505092915050565b6000806040838503121561403a57600080fd5b600061404885828601613f56565b925050602061405985828601613f56565b9150509250929050565b60008060006060848603121561407857600080fd5b600061408686828701613f56565b935050602061409786828701613f56565b92505060406140a886828701613fd4565b9150509250925092565b600080600080600080600060e0888a0312156140cd57600080fd5b60006140db8a828b01613f56565b97505060206140ec8a828b01613f56565b96505060406140fd8a828b01613fd4565b955050606061410e8a828b01613fd4565b945050608061411f8a828b01613fe9565b93505060a06141308a828b01613f6b565b92505060c06141418a828b01613f6b565b91505092959891949750929550565b6000806040838503121561416357600080fd5b600061417185828601613f56565b925050602083013567ffffffffffffffff81111561418e57600080fd5b61419a85828601613faa565b9150509250929050565b600080604083850312156141b757600080fd5b60006141c585828601613f56565b92505060206141d685828601613fd4565b9150509250929050565b6000602082840312156141f257600080fd5b600061420084828501613f6b565b91505092915050565b60006020828403121561421b57600080fd5b600061422984828501613f80565b91505092915050565b6000806040838503121561424557600080fd5b600061425385828601613f6b565b925050602061426485828601613f56565b9150509250929050565b60006020828403121561428057600080fd5b600061428e84828501613f95565b91505092915050565b6000602082840312156142a957600080fd5b60006142b784828501613fd4565b91505092915050565b6142c9816151f3565b82525050565b6142d881615205565b82525050565b6142e781615211565b82525050565b6142fe6142f982615211565b61535f565b82525050565b600061430f82614f30565b6143198185614f46565b935061432981856020860161529f565b80840191505092915050565b61433e8161527e565b82525050565b600061434f82614f3b565b6143598185614f51565b935061436981856020860161529f565b61437281615425565b840191505092915050565b600061438882614f3b565b6143928185614f62565b93506143a281856020860161529f565b80840191505092915050565b60006143bb601883614f51565b91506143c682615443565b602082019050919050565b60006143de601d83614f51565b91506143e98261546c565b602082019050919050565b6000614401602083614f51565b915061440c82615495565b602082019050919050565b6000614424602383614f51565b915061442f826154be565b604082019050919050565b6000614447601483614f51565b91506144528261550d565b602082019050919050565b600061446a602283614f51565b915061447582615536565b604082019050919050565b600061448d601f83614f51565b915061449882615585565b602082019050919050565b60006144b0602283614f51565b91506144bb826155ae565b604082019050919050565b60006144d3600283614f62565b91506144de826155fd565b600282019050919050565b60006144f6602c83614f51565b915061450182615626565b604082019050919050565b6000614519601d83614f51565b915061452482615675565b602082019050919050565b600061453c601d83614f51565b91506145478261569e565b602082019050919050565b600061455f602683614f51565b915061456a826156c7565b604082019050919050565b6000614582602283614f51565b915061458d82615716565b604082019050919050565b60006145a5602c83614f51565b91506145b082615765565b604082019050919050565b60006145c8603883614f51565b91506145d3826157b4565b604082019050919050565b60006145eb601083614f51565b91506145f682615803565b602082019050919050565b600061460e600f83614f51565b91506146198261582c565b602082019050919050565b6000614631602983614f51565b915061463c82615855565b604082019050919050565b6000614654602e83614f51565b915061465f826158a4565b604082019050919050565b6000614677602283614f51565b9150614682826158f3565b604082019050919050565b600061469a602e83614f51565b91506146a582615942565b604082019050919050565b60006146bd601e83614f51565b91506146c882615991565b602082019050919050565b60006146e0602d83614f51565b91506146eb826159ba565b604082019050919050565b6000614703602183614f51565b915061470e82615a09565b604082019050919050565b6000614726602683614f51565b915061473182615a58565b604082019050919050565b6000614749602583614f51565b915061475482615aa7565b604082019050919050565b600061476c602483614f51565b915061477782615af6565b604082019050919050565b600061478f602b83614f51565b915061479a82615b45565b604082019050919050565b60006147b2601683614f51565b91506147bd82615b94565b602082019050919050565b60006147d5601783614f62565b91506147e082615bbd565b601782019050919050565b60006147f8602583614f51565b915061480382615be6565b604082019050919050565b600061481b601183614f62565b915061482682615c35565b601182019050919050565b600061483e602f83614f51565b915061484982615c5e565b604082019050919050565b6000614861601f83614f51565b915061486c82615cad565b602082019050919050565b61488081615267565b82525050565b61488f81615271565b82525050565b60006148a18284614304565b915081905092915050565b60006148b7826144c6565b91506148c382856142ed565b6020820191506148d382846142ed565b6020820191508190509392505050565b60006148ee826147c8565b91506148fa828561437d565b91506149058261480e565b9150614911828461437d565b91508190509392505050565b600060208201905061493260008301846142c0565b92915050565b600060208201905061494d60008301846142cf565b92915050565b600060208201905061496860008301846142de565b92915050565b600060c08201905061498360008301896142de565b61499060208301886142c0565b61499d60408301876142c0565b6149aa6060830186614877565b6149b76080830185614877565b6149c460a0830184614877565b979650505050505050565b600060a0820190506149e460008301886142de565b6149f160208301876142de565b6149fe60408301866142de565b614a0b6060830185614877565b614a1860808301846142c0565b9695505050505050565b6000608082019050614a3760008301876142de565b614a446020830186614886565b614a5160408301856142de565b614a5e60608301846142de565b95945050505050565b6000602082019050614a7c6000830184614335565b92915050565b60006020820190508181036000830152614a9c8184614344565b905092915050565b60006020820190508181036000830152614abd816143ae565b9050919050565b60006020820190508181036000830152614add816143d1565b9050919050565b60006020820190508181036000830152614afd816143f4565b9050919050565b60006020820190508181036000830152614b1d81614417565b9050919050565b60006020820190508181036000830152614b3d8161443a565b9050919050565b60006020820190508181036000830152614b5d8161445d565b9050919050565b60006020820190508181036000830152614b7d81614480565b9050919050565b60006020820190508181036000830152614b9d816144a3565b9050919050565b60006020820190508181036000830152614bbd816144e9565b9050919050565b60006020820190508181036000830152614bdd8161450c565b9050919050565b60006020820190508181036000830152614bfd8161452f565b9050919050565b60006020820190508181036000830152614c1d81614552565b9050919050565b60006020820190508181036000830152614c3d81614575565b9050919050565b60006020820190508181036000830152614c5d81614598565b9050919050565b60006020820190508181036000830152614c7d816145bb565b9050919050565b60006020820190508181036000830152614c9d816145de565b9050919050565b60006020820190508181036000830152614cbd81614601565b9050919050565b60006020820190508181036000830152614cdd81614624565b9050919050565b60006020820190508181036000830152614cfd81614647565b9050919050565b60006020820190508181036000830152614d1d8161466a565b9050919050565b60006020820190508181036000830152614d3d8161468d565b9050919050565b60006020820190508181036000830152614d5d816146b0565b9050919050565b60006020820190508181036000830152614d7d816146d3565b9050919050565b60006020820190508181036000830152614d9d816146f6565b9050919050565b60006020820190508181036000830152614dbd81614719565b9050919050565b60006020820190508181036000830152614ddd8161473c565b9050919050565b60006020820190508181036000830152614dfd8161475f565b9050919050565b60006020820190508181036000830152614e1d81614782565b9050919050565b60006020820190508181036000830152614e3d816147a5565b9050919050565b60006020820190508181036000830152614e5d816147eb565b9050919050565b60006020820190508181036000830152614e7d81614831565b9050919050565b60006020820190508181036000830152614e9d81614854565b9050919050565b6000602082019050614eb96000830184614877565b92915050565b6000602082019050614ed46000830184614886565b92915050565b6000614ee4614ef5565b9050614ef0828261532e565b919050565b6000604051905090565b600067ffffffffffffffff821115614f1a57614f196153f6565b5b614f2382615425565b9050602081019050919050565b600081519050919050565b600081519050919050565b600081905092915050565b600082825260208201905092915050565b600081905092915050565b6000614f7882615267565b9150614f8383615267565b9250827fffffffffffffffffffffffffffffffffffffffffffffffffffffffffffffffff03821115614fb857614fb7615369565b5b828201905092915050565b6000614fce82615267565b9150614fd983615267565b925082614fe957614fe8615398565b5b828204905092915050565b6000808291508390505b600185111561503e5780860481111561501a57615019615369565b5b60018516156150295780820291505b808102905061503785615436565b9450614ffe565b94509492505050565b600061505282615267565b915061505d83615271565b925061508a7fffffffffffffffffffffffffffffffffffffffffffffffffffffffffffffffff8484615092565b905092915050565b6000826150a2576001905061515e565b816150b0576000905061515e565b81600181146150c657600281146150d0576150ff565b600191505061515e565b60ff8411156150e2576150e1615369565b5b8360020a9150848211156150f9576150f8615369565b5b5061515e565b5060208310610133831016604e8410600b84101617156151345782820a90508381111561512f5761512e615369565b5b61515e565b6151418484846001614ff4565b9250905081840481111561515857615157615369565b5b81810290505b9392505050565b600061517082615267565b915061517b83615267565b9250817fffffffffffffffffffffffffffffffffffffffffffffffffffffffffffffffff04831182151516156151b4576151b3615369565b5b828202905092915050565b60006151ca82615267565b91506151d583615267565b9250828210156151e8576151e7615369565b5b828203905092915050565b60006151fe82615247565b9050919050565b60008115159050919050565b6000819050919050565b60007fffffffff0000000000000000000000000000000000000000000000000000000082169050919050565b600073ffffffffffffffffffffffffffffffffffffffff82169050919050565b6000819050919050565b600060ff82169050919050565b600061528982615271565b9050919050565b82818337600083830152505050565b60005b838110156152bd5780820151818401526020810190506152a2565b838111156152cc576000848401525b50505050565b60006152dd82615267565b915060008214156152f1576152f0615369565b5b600182039050919050565b6000600282049050600182168061531457607f821691505b60208210811415615328576153276153c7565b5b50919050565b61533782615425565b810181811067ffffffffffffffff82111715615356576153556153f6565b5b80604052505050565b6000819050919050565b7f4e487b7100000000000000000000000000000000000000000000000000000000600052601160045260246000fd5b7f4e487b7100000000000000000000000000000000000000000000000000000000600052601260045260246000fd5b7f4e487b7100000000000000000000000000000000000000000000000000000000600052602260045260246000fd5b7f4e487b7100000000000000000000000000000000000000000000000000000000600052604160045260246000fd5b6000601f19601f8301169050919050565b60008160011c9050919050565b7f45434453413a20696e76616c6964207369676e61747572650000000000000000600082015250565b7f4552433230536e617073686f743a206e6f6e6578697374656e74206964000000600082015250565b7f537472696e67733a20686578206c656e67746820696e73756666696369656e74600082015250565b7f45524332303a207472616e7366657220746f20746865207a65726f206164647260008201527f6573730000000000000000000000000000000000000000000000000000000000602082015250565b7f5061757361626c653a206e6f7420706175736564000000000000000000000000600082015250565b7f45524332303a206275726e20616d6f756e7420657863656564732062616c616e60008201527f6365000000000000000000000000000000000000000000000000000000000000602082015250565b7f45434453413a20696e76616c6964207369676e6174757265206c656e67746800600082015250565b7f45524332303a20617070726f766520746f20746865207a65726f20616464726560008201527f7373000000000000000000000000000000000000000000000000000000000000602082015250565b7f1901000000000000000000000000000000000000000000000000000000000000600082015250565b7f46756e6374696f6e206d7573742062652063616c6c6564207468726f7567682060008201527f64656c656761746563616c6c0000000000000000000000000000000000000000602082015250565b7f45524332303a20696e73756666696369656e7420616c6c6f77616e6365000000600082015250565b7f45524332305065726d69743a206578706972656420646561646c696e65000000600082015250565b7f45524332303a207472616e7366657220616d6f756e742065786365656473206260008201527f616c616e63650000000000000000000000000000000000000000000000000000602082015250565b7f45434453413a20696e76616c6964207369676e6174757265202773272076616c60008201527f7565000000000000000000000000000000000000000000000000000000000000602082015250565b7f46756e6374696f6e206d7573742062652063616c6c6564207468726f7567682060008201527f6163746976652070726f78790000000000000000000000000000000000000000602082015250565b7f555550535570677261646561626c653a206d757374206e6f742062652063616c60008201527f6c6564207468726f7567682064656c656761746563616c6c0000000000000000602082015250565b7f5061757361626c653a2070617573656400000000000000000000000000000000600082015250565b7f696e76616c696420616464726573730000000000000000000000000000000000600082015250565b7f45524331393637557067726164653a20756e737570706f727465642070726f7860008201527f6961626c65555549440000000000000000000000000000000000000000000000602082015250565b7f496e697469616c697a61626c653a20636f6e747261637420697320616c72656160008201527f647920696e697469616c697a6564000000000000000000000000000000000000602082015250565b7f45434453413a20696e76616c6964207369676e6174757265202776272076616c60008201527f7565000000000000000000000000000000000000000000000000000000000000602082015250565b7f45524331393637557067726164653a206e657720696d706c656d656e7461746960008201527f6f6e206973206e6f742055555053000000000000000000000000000000000000602082015250565b7f45524332305065726d69743a20696e76616c6964207369676e61747572650000600082015250565b7f455243313936373a206e657720696d706c656d656e746174696f6e206973206e60008201527f6f74206120636f6e747261637400000000000000000000000000000000000000602082015250565b7f45524332303a206275726e2066726f6d20746865207a65726f2061646472657360008201527f7300000000000000000000000000000000000000000000000000000000000000602082015250565b7f416464726573733a2064656c65676174652063616c6c20746f206e6f6e2d636f60008201527f6e74726163740000000000000000000000000000000000000000000000000000602082015250565b7f45524332303a207472616e736665722066726f6d20746865207a65726f20616460008201527f6472657373000000000000000000000000000000000000000000000000000000602082015250565b7f45524332303a20617070726f76652066726f6d20746865207a65726f2061646460008201527f7265737300000000000000000000000000000000000000000000000000000000602082015250565b7f496e697469616c697a61626c653a20636f6e7472616374206973206e6f74206960008201527f6e697469616c697a696e67000000000000000000000000000000000000000000602082015250565b7f4552433230536e617073686f743a206964206973203000000000000000000000600082015250565b7f416363657373436f6e74726f6c3a206163636f756e7420000000000000000000600082015250565b7f45524332303a2064656372656173656420616c6c6f77616e63652062656c6f7760008201527f207a65726f000000000000000000000000000000000000000000000000000000602082015250565b7f206973206d697373696e6720726f6c6520000000000000000000000000000000600082015250565b7f416363657373436f6e74726f6c3a2063616e206f6e6c792072656e6f756e636560008201527f20726f6c657320666f722073656c660000000000000000000000000000000000602082015250565b7f45524332303a206d696e7420746f20746865207a65726f206164647265737300600082015250565b615cdf816151f3565b8114615cea57600080fd5b50565b615cf681615211565b8114615d0157600080fd5b50565b615d0d8161521b565b8114615d1857600080fd5b50565b615d2481615267565b8114615d2f57600080fd5b50565b615d3b81615271565b8114615d4657600080fd5b5056fe416464726573733a206c6f772d6c6576656c2064656c65676174652063616c6c206661696c6564a2646970667358221220aa9fa48d98bb7a950563760bd5743315666e29bcff74a3e821200ff9188347ec64736f6c63430008040033",
  "linkReferences": {},
  "deployedLinkReferences": {}
}